S01500006672656552746F735F756172742E73726563AA
S11300000C9434000C9451000C9451000C94510045
S11300100C9451000C9451000C9451000C94510018
S11300200C9451000C9451000C9451000C947102E6
S11300300C9451000C9451000C9451000C945100F8
S11300400C94ED0A0C9451000C94850B0C94AF0B9A
S11300500C94DB0B0C9451000C9451000C94510043
S11300600C9451000C94510011241FBECFEFD8E022
S1130070DEBFCDBF11E0A0E0B1E0EAEDFBE102C0DC
S113008005900D92AC32B107D9F728E0ACE2B1E0AB
S113009001C01D92A93DB207E1F70E9475090C94B5
S11300A0EB0D0C940000CF93DF93EC010E94AF069C
S11300B080912C0190912D01892B31F481E391E001
S11300C090932D0180932C0120912E0130912F01CA
S11300D0C9018C0F9D1F8B3D45E0940770F42817D0
S11300E0390758F4C0912C01D0912D01C20FD31FB0
S11300F090932F0180932E0102C0C0E0D0E00E94B3
S11301006107CE01DF91CF9108950895FC01039614
S1130110928381832FEF3FEF3483238396838583F8
S11301209087878310820895FC01118610860895B4
S1130130CF93DF939C01FB01DC011196CD91DC91FF
S11301401297D383C2838C819D81958384838C8110
S11301509D81DC0113967C936E9312977D836C834F
S113016031872087F90180818F5F8083DF91CF9170
S113017008950F931F93CF93DF938C01FB0180812C
S113018091818F3F2FEF920721F4E801AF81B88569
S11301900EC0D801139612962D913C911397E90144
S11301A0488159818417950710F0D901F4CF12962C
S11301B08D919C91139793838283EC01FD83EC834F
S11301C0B583A4831396FC93EE931297118700874B
S11301D0F80180818F5F8083DF91CF911F910F9110
S11301E00895CF93DF93FC01A085B185828193812B
S11301F024813581EC013D832C83C481D5819B838B
S11302008A8311968D919C911297E817F90721F42E
S11302101296DC93CE931197118610868C9181509F
S11302208C93DF91CF91089531E1FC0130833197B4
S113023022E220833197A3E3A0833197608331972F
S1130240708331971082319760E860833197108210
S1130250319762E06083319763E06083319764E0B3
S11302606083319765E06083319766E060833197FE
S113027067E06083319768E06083319769E0608369
S1130280319760E1608331973083319732E1308375
S1130290319733E13083319734E13083319735E15D
S11302A03083319736E13083319737E130833197AA
S11302B038E13083319739E13083319730E230834C
S11302C0319731E2308331972083319723E22083C1
S11302D03197408331975083319726E220833197B9
S11302E027E22083319728E22083319729E2208373
S11302F0319720E32083319721E320838697089563
S11303001092890089EF80938800E1E8F0E0808111
S11303108B608083EFE6F0E0808182608083A0912F
S11303207007B0917107CD91CDBFDD91DEBFFF9114
S1130330EF91DF91CF91BF91AF919F918F917F9179
S11303406F915F914F913F912F911F910F91FF906A
S1130350EF90DF90CF90BF90AF909F908F907F9061
S11303606F905F904F903F902F901F900F900FBE13
S11303700F90089581E008950F920FB6F8940F92AC
S11303801F9211242F923F924F925F926F927F920D
S11303908F929F92AF92BF92CF92DF92EF92FF9291
S11303A00F931F932F933F934F935F936F937F9379
S11303B08F939F93AF93BF93CF93DF93EF93FF9369
S11303C0A0917007B09171070DB60D920EB60D9203
S11303D00E941908A0917007B0917107CD91CDBF0B
S11303E0DD91DEBFFF91EF91DF91CF91BF91AF918E
S11303F09F918F917F916F915F914F913F912F9139
S11304001F910F91FF90EF90DF90CF90BF90AF902E
S11304109F908F907F906F905F904F903F902F9020
S11304201F900F900FBE0F9008950F920FB6F8947F
S11304300F921F9211242F923F924F925F926F92CC
S11304407F928F929F92AF92BF92CF92DF92EF9260
S1130450FF920F931F932F933F934F935F936F9349
S11304607F938F939F93AF93BF93CF93DF93EF9338
S1130470FF93A0917007B09171070DB60D920EB65F
S11304800D920E94B50681110E941908A09170076F
S1130490B0917107CD91CDBFDD91DEBFFF91EF919A
S11304A0DF91CF91BF91AF919F918F917F916F9188
S11304B05F914F913F912F911F910F91FF90EF907A
S11304C0DF90CF90BF90AF909F908F907F906F9070
S11304D05F904F903F902F901F900F900FBE0F9002
S11304E008950E94150218950F931F93CF93DF93DD
S11304F0EC01042F1A8D4C8D4423B1F150E001110D
S113050015C08C819D810E94E20D2C8D8C819D8172
S1130510820F911D9D838C832A813B8182179307CF
S113052018F1888199819D838C831EC08E819F815F
S11305300E94E20D8C8D90E09195819591092E8118
S11305403F81280F391F3F832E8348815981241707
S1130550350730F42A813B81820F931F9F838E835A
S1130560023011F4111111501F5F1A8F80E0DF91D6
S1130570CF911F910F910895FC01CB01448D442329
S1130580A1F050E026813781240F351F378326835D
S1130590628173812617370720F0208131813783E8
S11305A02683668177810C94E20D0895EF92FF9281
S11305B01F93CF93DF93EC010FB6F8940F921E8D27
S11305C07C0181E1E80EF11C11165CF48989882311
S11305D041F0C7010E946D0881110E94EA08115080
S11305E0F3CF8FEF8E8F0F900FBE0FB6F8940F924C
S11305F01D8D7E0188E0E80EF11C11165CF48885DF
S1130600882341F0C7010E946D0881110E94EA0805
S11306101150F3CF8FEF8D8F0F900FBEDF91CF91DD
S11306201F91FF90EF900895CF93DF93EC010FB6E5
S1130630F8940F92288139819B8D4C8D949FC00131
S11306401124F901E80FF91FFB83EA831A8E3D8315
S11306502C83841B9109820F931F9F838E838FEFBA
S11306608D8F8E8F61110CC08885882389F0CE010F
S113067008960E946D08882359F00E94BC0108C0A6
S1130680CE0108960E948600CE0141960E94860003
S11306900F900FBE81E0DF91CF9108950F931F93C8
S11306A0CF93DF93082F162F662321F0869FC00176
S11306B0112402C080E090E04F960E945300EC01A8
S11306C0009771F0111103C09983888303C04F967A
S11306D0998388830B8F1C8F61E0CE010E941403E1
S11306E0CE01DF91CF911F910F910895AF92BF92E8
S11306F0CF92DF92FF920F931F93CF93DF9300D09B
S113070000D01F92CDB7DEB78C016B015D834C83A3
S1130710F22E80E0580198E0A90EB11C0FB6F894AF
S11307200F92F801228D938D291718F0F2E0FF1231
S113073014C04F2DB601C8010E947402F8019189BA
S1130740992321F0C80141960E946D0881110E94ED
S1130750BC010F900FBE81E050C02C813D81232B42
S113076019F40F900FBE48C0811104C0CE01019648
S11307700E94AD080F900FBE0E94AF060FB6F8940A
S11307800F92F801858D8F3F09F4158EF801868D3F
S11307908F3F09F4168E0F900FBEBE016C5F7F4F22
S11307A0CE0101960E94B808811121C00FB6F894B9
S11307B00F92F801928D0F900FBE838D981311C084
S11307C06C817D81C5010E945C08C8010E94D6022B
S11307D00E946107882311F081E0A0CF0E94BC0130
S11307E0FBCFC8010E94D6020E946107F5CFC80161
S11307F00E94D6020E94610780E00F900F900F9034
S11308000F900F90DF91CF911F910F91FF90DF9088
S1130810CF90BF90AF900895AF92BF92CF92DF92E6
S1130820EF92FF920F931F93CF93DF9300D000D0EA
S11308301F92CDB7DEB78C016B015D834C83E22E32
S113084080E0580191E1A90EB11C0FB6F8940F9203
S1130850F801F28CFF2021F1A680B780B601C8010F
S11308600E94BC02E1100FC0FA94F801F28E808558
S1130870882391F0C80108960E946D08882361F0CE
S11308800E94BC0109C0F801B782A682818988232D
S113089019F0C8014196F0CF0F900FBE81E058C007
S11308A02C813D81232B21F40F900FBE80E050C09A
S11308B0811104C0CE0101960E94AD080F900FBEB5
S11308C00E94AF060FB6F8940F92F801858D8F3F02
S11308D009F4158EF801868D8F3F09F4168E0F905A
S11308E00FBEBE016C5F7F4FCE0101960E94B80817
S11308F0811120C00FB6F8940F92F801828D0F90E9
S11309000FBE811111C06C817D81C5010E945C08FC
S1130910C8010E94D6020E946107882311F081E079
S113092094CF0E94BC01FBCFC8010E94D6020E9452
S11309306107F5CFC8010E94D6020E9461070FB675
S1130940F8940F92F801828D0F900FBE8111E7CFBA
S11309500F900F900F900F900F90DF91CF911F91F8
S11309600F91FF90EF90DF90CF90BF90AF900895DC
S1130970E0913807F09139078081811103C08FEF2E
S11309809FEF0CC0E0913807F09139070580F6819C
S1130990E02D0680F781E02D8281938190931007EA
S11309A080930F070895FF920F931F93CF93DF93C4
S11309B0EC01F62E0091170710911807809170072B
S11309C09091710702960E94F100CF3F8FEFD807F4
S11309D089F4FF2079F060917007709171076E5F60
S11309E07F4F8AE197E0DF91CF911F910F91FF90A4
S11309F00C949800C00FD11FE0917007F09171071B
S1130A00D383C2836091700770917107C017D107B7
S1130A1068F480913607909137076E5F7F4FDF91BE
S1130A20CF911F910F91FF900C94B90080913807DA
S1130A30909139076E5F7F4F0E94B90080910F0734
S1130A4090911007C817D90720F4D0931007C093CA
S1130A500F07DF91CF911F910F91FF9008953F925F
S1130A604F925F926F927F928F929F92AF92BF92BA
S1130A70CF92DF92EF92FF920F931F93CF93DF9366
S1130A804C01162F372E6A015901CA010E945300E6
S1130A902C01892B09F4D1C086E290E00E94530016
S1130AA0EC01892B79F0588E4F8AC60101973201E7
S1130AB0680E791EBE01675E7F4FE12FF32DCF01D3
S1130AC0089607C0C2010E948500B7C0E817F9075D
S1130AD049F09F014191DB014D93BD01D9012C9156
S1130AE02111F4CF18A2043008F003E00E8B6E013C
S1130AF0B2E0CB0ED11CC6010E949400CE010C962C
S1130B000E949400D987C88784E090E0801B9109F3
S1130B109D878C87DB8BCA8B19A21AA21BA21CA2ED
S1130B201DA2A501B401C3010E9414019983888305
S1130B30E114F10419F0F701D183C0830FB6F894DE
S1130B400F92809119078F5F809319078091700726
S1130B5090917107892BD1F5D0937107C0937007D9
S1130B6080911907813009F041C08CE497E00E941C
S1130B70860085E597E00E9486008EE597E00E9456
S1130B80860087E697E00E94860083E497E00E944F
S1130B9086008AE397E00E9486008DE297E00E9437
S1130BA0860084E297E00E9486008AE197E00E9432
S1130BB0860083E497E090933907809338078AE3AB
S1130BC097E0909337078093360710C080911507FC
S1130BD081110CC0E0917007F091710796898E899C
S1130BE0891720F0D0937107C09370078091110783
S1130BF08F5F809311078E8990911607981710F4D0
S1130C0080931607F9E08F9FC0011124B601845B1D
S1130C10984F0E9498000F900FBE8091150788236B
S1130C2051F0E0917007F091710796898E899817B9
S1130C3010F40E94BC0181E001C08FEFDF91CF91DD
S1130C401F910F91FF90EF90DF90CF90BF90AF90E6
S1130C509F908F907F906F905F904F903F900895FA
S1130C600F931F93CF93DF93EC010FB6F8940F9279
S1130C70892B21F4C0917007D09171078E010E5F0A
S1130C801F4FC8010E94F1008C899D89892B21F096
S1130C90CE010C960E94F100809111078F5F809322
S1130CA011078091700790917107C817D90759F4FB
S1130CB0B80184E297E00E949800809123078F5F37
S1130CC0809323070EC080911907815080931907E0
S1130CD08F89988D0E948500CE010E9485000E9414
S1130CE0B8040F900FBE80911507882349F08091B6
S1130CF0700790917107C817D90711F40E94BC01BD
S1130D00DF91CF911F910F910895EF92FF920F936E
S1130D108DE0E82E87E0F82E00E020E030E044E6A5
S1130D2050E060E071E085EE97E00E942F0581308D
S1130D3091F4F8942FEF3FEF3093100720930F07AF
S1130D408093150710921807109217070F91FF90C0
S1130D50EF900C9480010F91FF90EF900895809193
S1130D600C078F5F80930C070895CF92DF92EF9268
S1130D70FF920F931F93CF93DF9380910C07811100
S1130D808CC000911707109118070F5F1F4F109325
S1130D9018070093170701151105B9F48091380756
S1130DA090913907209136073091370730933907EE
S1130DB02093380790933707809336078091120762
S1130DC08F5F809312070E94B80480910F0790915F
S1130DD01007C0E00817190708F44FC0D9E0E091E4
S1130DE03807F09139078081811103C08FEF9FEF9D
S1130DF011C0E0913807F09139070580F681E02DA4
S1130E00E680F780D70112968D919C91139708176D
S1130E10190728F49093100780930F072EC06701D9
S1130E20B2E0CB0ED11CC6010E94F100F701848907
S1130E309589892B21F0C7010C960E94F100D701F6
S1130E4056968C9190911607981710F48093160774
S1130E50D89FC0011124B601845B984F0E9498006A
S1130E60E0917007F0917107D70156969C9186899D
S1130E70981708F4B4CFC1E0B2CFE0917007F091B5
S1130E807107E689B9E0EB9FF0011124E45BF84FA8
S1130E908081823040F0C1E006C0809114078F5FEA
S1130EA080931407C0E0809113078111C1E08C2F57
S1130EB0DF91CF911F910F91FF90EF90DF90CF9032
S1130EC00895EF92FF920F931F93CF93DF930FB682
S1130ED0F8940F9280910C07815080930C078091B5
S1130EE00C07882311F080E052C0809119078823F1
S1130EF0D1F3C0E0D0E089E0F82EEE24E3948091B1
S1130F002D07882351F1E0913207F0913307C68110
S1130F10D781CE010C960E94F1008E010E5F1F4F07
S1130F20C8010E94F1008E8990911607981710F459
S1130F3080931607F89EC0011124B801845B984F72
S1130F400E949800E0917007F09171079E8986894C
S1130F509817A8F2E0921307D2CFCD2B11F00E947C
S1130F60B804C0911407CC2351F0D1E00E94B50617
S1130F708111D0931307C150C9F7109214078091BF
S1130F801307882309F4AFCF0E94BC0181E00F90BE
S1130F900FBEDF91CF911F910F91FF90EF900895B5
S1130FA0CF93DF93EC01892B19F40E94BC010AC092
S1130FB00E94AF0660E0CE010E94D3040E94610744
S1130FC0882399F3DF91CF91089580912307882393
S1130FD049F10E94AF06C09124070E946107CC2307
S1130FE0A1F30FB6F8940F92E0912907F0912A0724
S1130FF0C681D781CE0102960E94F1008091190723
S1131000815080931907809123078150809323078F
S11310100F900FBE8F89988D0E948500CE010E948B
S11310208500D3CF80914C07823078F20E94BC01B6
S1131030CCCF80910C07882321F081E080931307A3
S11310400895109213078091160769E0482F50E025
S1131050649F9001659F300D1124F901E45BF84F02
S11310609081911102C08150F1CFA181B281129679
S11310700D90BC91A02DB283A183215B384FA217A0
S1131080B30731F412962D913C9113973283218347
S113109099E0949FF001959FF00D1124E45BF84FC3
S11310A00180F281E02D26813781309371072093EE
S11310B07007809316070895CF93DF93EB01609137
S11310C0700770917107645F7F4F0E94B90061E0FF
S11310D0CE01DF91CF910C94D3040F931F93CF9340
S11310E0DF93DC011596ED91FC911697C681D781AB
S11310F08E01045F1F4FC8010E94F10080910C070C
S1131100811114C00A501109C8010E94F1008E898E
S113111090911607981710F480931607B9E08B9FE7
S1131120C0011124B801845B984F03C0B8018DE25B
S113113097E00E949800E0917007F09171079E89F2
S11311408689891720F481E08093130701C080E029
S1131150DF91CF911F910F91089520911207FC0107
S11311602083209117073091180732832183089533
S1131170CF93DF930FB6F8940F92E0911707F09195
S11311801807DB012D913C912F3FBFEF3B07D1F0B6
S1131190A0911207EC01B88149815A81BA1719F05C
S11311A0E417F50788F4DF01A41BB50BA217B307F6
S11311B058F4DB014E1B5F0B240F351F2D933C931A
S11311C00E94AD0880E001C081E00F900FBEDF9166
S11311D0CF91089581E0809313070895CF93DF930F
S11311E000D000D0CDB7DEB720E04FEF5FEFBE01F7
S11311F06F5F7F4F80917807909179070E940C046C
S1131200813091F769817A818B819C810E94E10907
S1131210EBCFCF93DF9300D000D0CDB7DEB720E083
S11312204FEF5FEFBE016F5F7F4F80917607909124
S113123077070E940C04813091F769817A818B8150
S11312409C810E94F409EBCFCF93DF931F92CDB71B
S1131250DEB70E942A0C898320E04AE050E0BE01F8
S11312606F5F7F4F80917A0790917B070E9476038E
S1131270F0CFCF93DF93CDB7DEB761970FB6F89475
S1131280DEBF0FBECDBF00E010E020E04FEF5FEF08
S1131290BE016F5E7F4F80917A0790917B070E9419
S11312A00C04813091F7011107C08989843269F7F0
S11312B0898301E011E0E9CF1031A8F401E0010FC6
S11312C08989E1E0F0E0EC0FFD1FE10FF11D80835F
S11312D08A3019F0102F01E0D8CF602FCE0101968B
S11312E00E94500A102F00E0D0CF60E875E280E041
S11312F090E00E94F20B0E94DE090E94370B40E04E
S113130061E080E40E944E0390937B0780937A0708
S113131040E064E088E00E944E0390937907809354
S1131320780740E064E088E00E944E0390937707DA
S11313308093760780917A0790917B07892BE9F156
S11313408091780790917907892BB9F1E12CF12CE0
S113135002E020E030E044E650E065E071E084E241
S113136099E00E942F0501E020E030E048EC50E0D5
S11313706CE071E089E399E00E942F0584E7E82E90
S113138087E0F82E00E020E030E044E650E066E13B
S113139071E08EEE98E00E942F0592E7E92E97E027
S11313A0F92E20E030E044E650E061E271E089E0AB
S11313B099E00E942F050E948506FFCF209A219A6A
S11313C00895289A0E94BE0C28E431EE4AE350E4C2
S11313D00E944A0C20E030E04AE754E40E946E0D7B
S11313E00E94600B28980895299A0E94BE0C28E454
S11313F031EE4AE350E40E944A0C20E030E04AE730
S113140054E40E946E0D0E94600B29980895289858
S113141029980895282FFC0180E09E2F921B96178F
S113142018F49191890FF9CF0895EF92FF920F93D9
S11314301F93CF93DF93CDB7DEB72A970FB6F894F7
S1131440DEBF0FBECDBF94E299838A836B834C8346
S11314503D832E831F83088767E0CE0102960E9496
S11314600A0A89878AE08A878E010F5F1F4F7E01EF
S11314708BE0E80EF11CF80181918F010E94090CA8
S11314800E151F05C1F72A960FB6F894DEBF0FBEDE
S1131490CDBFDF91CF911F910F91FF90EF900895F1
S11314A0EF92FF920F931F93CF93DF9300D000D05E
S11314B0CDB7DEB7FC01663008F484C08181813089
S11314C009F080C0E28087E5E81206C06A3009F0BE
S11314D079C0F08467E008C082E5E81273C0663022
S11314E009F070C0F48063E08F01CF0101960E947F
S11314F00A0AF81267C0F801F38019821A821B8263
S11315001C82F7E5EF1243C0F8016481758186817E
S113151097810E94DB0D69837A838B839C83F1E03E
S1131520FF120BC020E04FEF5FEFBE016F5F7F4FF4
S113153080917807909179070DC082E0F8120DC070
S113154020E04FEF5FEFBE016F5F7F4F8091760722
S1131550909177070E94760313C0E3E0FE1210C057
S113156080917407909175070E94300680917207EC
S1131570909173070E9430060E94370B0E94070A5D
S113158009811A812B813C814F2D67E518C0F2E552
S1131590EF1218C083E08F1560F0EF2DF0E0E458EF
S11315A0F84F808190E0A0E0B0E089839A83AB8318
S11315B0BC8309811A812B813C814F2D62E581E036
S11315C00E94150A0F900F900F900F90DF91CF910A
S11315D01F910F91FF90EF9008951F920F920FB6F5
S11315E00F9211242F933F938F939F93AF93BF93A5
S11315F080918D0790918E07A0918F07B0919007ED
S113160030918C0723E0230F2D3720F40196A11D80
S1131610B11D05C026E8230F0296A11DB11D20931C
S11316208C0780938D0790938E07A0938F07B093B8
S113163090078091910790919207A0919307B091A0
S113164094070196A11DB11D809391079093920771
S1131650A0939307B0939407BF91AF919F918F91FB
S11316603F912F910F900FBE0F901F901895F894F3
S113167014BC83E085BDEEE6F0E080818160808368
S11316801092910710929207109293071092940768
S113169010928D0710928E0710928F071092900768
S11316A010928C07789408952FB7F89460918D0761
S11316B070918E0780918F07909190072FBF0895A6
S11316C08F929F92AF92BF92CF92DF92EF92FF924E
S11316D06B017C010E94540B4B015C010E94540B72
S11316E0681979098A099B090E94BC0CA701960113
S11316F00E94450C87FDF2CFFF90EF90DF90CF90D2
S1131700BF90AF909F908F9008951F920F920FB645
S11317100F9211242F933F938F939F93EF93FF93F3
S11317202091C6008091960790E001968F739927C7
S113173030919507381741F0E0919607F0E0E756AD
S1131740F84F208380939607FF91EF919F918F919B
S11317503F912F910F900FBE0F901F9018951F92DD
S11317600F920FB60F9211248F939F93EF93FF93D1
S11317709091980780919707981306C08091C100B3
S11317808F7D8093C1000EC0E0919707F0E0E7528F
S1131790F84F80818093C6008091970790E001966E
S11317A080939707FF91EF919F918F910F900FBEB8
S11317B00F901F9018951F920F920FB60F9211243D
S11317C08F939F939091980780919707981303C0E4
S11317D08BB1837F8BB99F918F910F900FBE0F9028
S11317E01F9018951092C50087E68093C40088ED79
S11317F08093C10086E08093C2008AB18C608AB96C
S11318008BB1837F8BB9E0ECF0E0808180648083CE
S11318100895CF93C82F8BB18C608BB980919807B2
S113182090E0019620919707281305C081E090E08D
S11318300E94D007F3CFE0919807F0E0E752F84F09
S1131840C083809398078091C10080628093C10017
S1131850CF9108959091960780919507981305C0AC
S113186081E090E00E94D007F5CFE0919507F0E089
S1131870E756F84F80812091950730E02F5F3F4F66
S11318802F7333272093950708950E94F90C08F4C9
S113189081E008950E945E0C0C94340D0E942D0D7D
S11318A058F00E94260D40F029F45F3F29F00C9473
S11318B01D0D51110C94680D0C94230D0E94450DBF
S11318C068F39923B1F3552391F3951B550BBB276B
S11318D0AA2762177307840738F09F5F5F4F220FB0
S11318E0331F441FAA1FA9F335D00E2E3AF0E0E8A7
S11318F032D091505040E695001CCAF72BD0FE2FF1
S113190029D0660F771F881FBB1F26173707480784
S1131910AB07B0E809F0BB0B802DBF01FF2793583C
S11319205F4F3AF09E3F510578F00C941D0D0C94D6
S1131930680D5F3FE4F3983ED4F3869577956795F9
S1131940B795F7959F5FC9F7880F911D9695879571
S113195097F90895E1E0660F771F881FBB1F621790
S113196073078407BA0720F0621B730B840BBA0B4E
S1131970EE1F88F7E0950895E89409C097FB3EF4BC
S113198090958095709561957F4F8F4F9F4F9923C8
S1131990A9F0F92F96E9BB279395F6958795779546
S11319A06795B795F111F8CFFAF4BB0F11F460FF06
S11319B01BC06F5F7F4F8F4F9F4F16C0882311F05E
S11319C096E911C0772321F09EE8872F762F05C072
S11319D0662371F096E8862F70E060E02AF09A950D
S11319E0660F771F881FDAF7880F9695879597F902
S11319F00895990F0008550FAA0BE0E8FEEF16169C
S1131A001706E807F907C0F012161306E407F507EE
S1131A1098F0621B730B840B950B39F40A2661F062
S1131A20232B242B252B21F408950A2609F4A14005
S1131A30A6958FEF811D811D089597F99F6780E812
S1131A4070E060E008959FEF80EC089500240A940C
S1131A501616170618060906089500240A94121685
S1131A601306140605060895092E0394000C11F4B8
S1131A70882352F0BB0F40F4BF2B11F460FF04C065
S1131A806F5F7F4F8F4F9F4F089557FD9058440FBE
S1131A90551F59F05F3F71F04795880F97FB991FC9
S1131AA061F09F3F79F08795089512161306140686
S1131AB0551FF2CF4695F1DF08C016161706180613
S1131AC0991FF1CF86957105610508940895E894EE
S1131AD0BB2766277727CB0197F908950E94810DCC
S1131AE00C94340D0E94260D38F00E942D0D20F028
S1131AF0952311F00C941D0D0C94230D11240C94BA
S1131B00680D0E94450D70F3959FC1F3950F50E049
S1131B10551F629FF001729FBB27F00DB11D639F9B
S1131B20AA27F00DB11DAA1F649F6627B00DA11D41
S1131B30661F829F2227B00DA11D621F739FB00DE7
S1131B40A11D621F839FA00D611D221F749F332757
S1131B50A00D611D231F849F600D211D822F762FF0
S1131B606A2F11249F5750409AF0F1F088234AF0CD
S1131B70EE0FFF1FBB1F661F771F881F9150504039
S1131B80A9F79E3F510580F00C941D0D0C94680D2F
S1131B905F3FE4F3983ED4F3869577956795B795C0
S1131BA0F795E7959F5FC1F7FE2B880F911D9695DA
S1131BB0879597F9089569279627692778278727AE
S1131BC078270895FB01DC0102C001900D92415079
S10D1BD05040D8F70895F894FFCFB1
S1131BDA49444C450052785461736B0050726F74D7
S1131BEA6F5461736B004D6F746572315461736B1A
S10F1BFA004D6F746572325461736B000F
S9030000FC
