:100000000C9434000C9449000C9449000C94490061
:100010000C9449000C9449000C9449000C9449003C
:100020000C9449000C9449000C9449000C9449002C
:100030000C9449000C9449000C9449000C9449001C
:100040000C9449000C9449000C9449000C9449000C
:100050000C9449000C9449000C9449000C944900FC
:100060000C9449000C94490011241FBECFEFD8E036
:10007000DEBFCDBF11E0A0E0B1E0EAE1F1E002C0F7
:1000800005900D92A831B107D9F70E944B000C944E
:100090008B000C940000CF93DF93CDB7DEB7689749
:1000A0000FB6F894DEBF0FBECDBF88E1E0E0F1E00F
:1000B000DE01119601900D928A95E1F78AB18C606C
:1000C0008AB95B9A5B9A1092C50082E08093C40063
:1000D00088E08093C10086E08093C2009AE0FE0130
:1000E00031968191882339F02091C00025FFFCCF03
:1000F0008093C600F6CF8091C00085FFFCCF90931F
:10010000C6002FEF3FEB81E2215030408040E1F705
:0A01100000C00000E4CFF894FFCF18
:10011A0048656C6C6F2066726F6D2041546D65671F
:08012A0061333238702020001F
:00000001FF
