:100000000C9434000C9451000C9451000C94510049
:100010000C9451000C9451000C9451000C9451001C
:100020000C9451000C9451000C9451000C947302E8
:100030000C9451000C9451000C9451000C945100FC
:100040000C94C10A0C9451000C947C0B0C94AC0BD6
:100050000C94DE0B0C9451000C9451000C94510044
:100060000C9451000C94510011241FBECFEFD8E026
:10007000DEBFCDBF11E0A0E0B1E0EEE8F9E102C0E3
:1000800005900D92A232B107D9F728E0A2E2B1E0C3
:1000900001C01D92A93CB207E1F70E94C6090C9469
:1000A000C50C0C940000CF93DF93EC010E94E50691
:1000B0008091220190912301892B31F487E291E014
:1000C00090932301809322012091240130912501F6
:1000D000C9018C0F9D1F8B3D45E0940770F42817D4
:1000E000390770F4C0912201D0912301C20FD31FB0
:1000F000909325018093240105C0C0E0D0E002C0A8
:10010000C0E0D0E00E94A507CE01DF91CF91089515
:100110000895FC010396928381832FEF3FEF348390
:100120002383968385839087878310820895FC01BB
:10013000118610860895CF93DF939C01FB01DC01AB
:100140001196CD91DC911297D383C2838C819D81CE
:10015000958384838C819D81DC0113967C936E93BF
:1001600012977D836C8331872087F90180818F5FAF
:100170008083DF91CF910895CF93DF93EB01488186
:1001800059814F3F2FEF520721F4FC01A781B08521
:100190000DC0DC01139601C0DF011296ED91FC91B8
:1001A00013972081318142175307B0F71296ED91D2
:1001B000FC911397FB83EA83D583C483BD83AC830F
:1001C0001396DC93CE93129799878887FC01208140
:1001D0002F5F2083DF91CF910895CF93DF93FC01B0
:1001E000A085B185C281D381848195819D838C83D3
:1001F000C481D581828193819B838A8311968D915D
:100200009C911297E817F90731F484819581129631
:100210009C938E931197118610868C9181508C93AC
:10022000DF91CF9108951092890089EF8093880023
:10023000E1E8F0E080818B608083EFE6F0E0808190
:1002400082608083089531E1FC013083319722E29E
:1002500020833197A3E3A083319760833197708324
:1002600031971082319760E860833197108231971F
:1002700062E06083319763E06083319764E060837C
:10028000319765E06083319766E06083319767E07E
:100290006083319768E06083319769E060833197CC
:1002A00060E1608331973083319732E13083319759
:1002B00033E13083319734E13083319735E1308356
:1002C000319736E13083319737E13083319738E128
:1002D0003083319739E13083319730E23083319781
:1002E00031E2308331972083319723E220833197A5
:1002F000408331975083319726E22083319727E25C
:100300002083319728E22083319729E22083319797
:1003100020E32083319721E32083869708950E946C
:100320001301A0916607B0916707CD91CDBFDD9114
:10033000DEBFFF91EF91DF91CF91BF91AF919F9180
:100340008F917F916F915F914F913F912F911F916D
:100350000F91FF90EF90DF90CF90BF90AF909F9064
:100360008F907F906F905F904F903F902F901F9055
:100370000F900FBE0F90089581E008950F920FB671
:10038000F8940F921F9211242F923F924F925F92F6
:100390006F927F928F929F92AF92BF92CF92DF9295
:1003A000EF92FF920F931F932F933F934F935F937F
:1003B0006F937F938F939F93AF93BF93CF93DF936D
:1003C000EF93FF93A0916607B09167070DB60D926A
:1003D0000EB60D920E946408A0916607B09167075F
:1003E000CD91CDBFDD91DEBFFF91EF91DF91CF9138
:1003F000BF91AF919F918F917F916F915F914F913D
:100400003F912F911F910F91FF90EF90DF90CF9030
:10041000BF90AF909F908F907F906F905F904F9024
:100420003F902F901F900F900FBE0F9008950F9246
:100430000FB6F8940F921F9211242F923F924F9271
:100440005F926F927F928F929F92AF92BF92CF9264
:10045000DF92EF92FF920F931F932F933F934F934F
:100460005F936F937F938F939F93AF93BF93CF933C
:10047000DF93EF93FF93A0916607B09167070DB6E6
:100480000D920EB60D920E94EB0681110E94640837
:10049000A0916607B0916707CD91CDBFDD91DEBF1A
:1004A000FF91EF91DF91CF91BF91AF919F918F918C
:1004B0007F916F915F914F913F912F911F910F917C
:1004C000FF90EF90DF90CF90BF90AF909F908F9074
:1004D0007F906F905F904F903F902F901F900F9064
:1004E0000FBE0F9008950E94170218950FB6F8944A
:1004F0000F92FC01828D811102C081E001C080E079
:100500000F900FBE08950FB6F8940F92FC01228D44
:10051000838D281302C081E001C080E00F900FBEE0
:1005200008950F931F93CF93DF93EC01042F1A8D3F
:100530004C8D4423B9F1011116C050E08C819D818E
:100540000E94BC0C2C8D8C819D81820F911D9D83FE
:100550008C832A813B818217930720F188819981BE
:100560009D838C831FC050E08E819F810E94BC0CB4
:100570008C8D90E09195819591092E813F81280F76
:10058000391F3F832E83488159812417350730F462
:100590002A813B81820F931F9F838E83023011F447
:1005A000111111501F5F1A8F80E0DF91CF911F91C1
:1005B0000F910895FC01448D4423A9F050E0268159
:1005C0003781240F351F3783268382819381281733
:1005D000390720F08081918197838683CB016681E2
:1005E00077810E94BC0C08951F93CF93DF93EC0199
:1005F0000FB6F8940F921E8D0BC08989882351F095
:10060000CE0141960E94CA0881110E9456091150DC
:1006100011169CF38FEF8E8F0F900FBE0FB6F894CC
:100620000F921D8D0BC08885882351F0CE0108964E
:100630000E94CA0881110E945609115011169CF39C
:100640008FEF8D8F0F900FBEDF91CF911F91089587
:10065000CF93DF93EC010FB6F8940F92E881F98104
:100660008B8D90E02C8D30E0829FA001839F500DF8
:10067000929F500D11244E0F5F1F5B834A831A8E89
:10068000FD83EC830197289FA001299F500D389F7F
:10069000500D1124CF01840F951F9F838E838FEF00
:1006A0008D8F8E8F61110CC08885882389F0CE01D3
:1006B00008960E94CA08882359F00E94BE0108C00B
:1006C000CE0108960E948900CE0141960E948900C1
:1006D0000F900FBE81E0DF91CF9108950F931F938C
:1006E000F801611103C01183008302C0518340836C
:1006F000838F648F61E0CF010E9428031F910F91C7
:100700000895DF92EF92FF920F931F93CF93DF93A1
:10071000E82EF62ED42E662321F0869FC0011124E8
:1007200002C080E090E04F960E945300EC010097D9
:1007300049F08C012D2DAC01415E5F4F6F2D8E2D48
:100740000E946E03CE01DF91CF911F910F91FF9018
:10075000EF90DF900895CF92DF92EF92FF920F9388
:100760001F93CF93DF9300D000D01F92CDB7DEB799
:100770008C017B015D834C83C22ED12C0FB6F89483
:100780000F92F801928D838D981718F0F2E0CF1236
:1007900019C04C2DB701C8010E949102F80191893E
:1007A000992349F0C80141960E94CA08882331F074
:1007B0000E94BE0103C081110E94BE010F900FBEB6
:1007C00081E04DC08C819D81892B21F40F900FBE5B
:1007D00080E045C0D11006C0CE0101960E941209EA
:1007E000DD24D3940F900FBE0E94E5060FB6F89457
:1007F0000F92F801858D8F3F09F4158EF801868DD3
:100800008F3F09F4168E0F900FBEBE016C5F7F4FB5
:10081000CE0101960E941D0981111BC0C8010E94D2
:100820008302882381F06C817D81C80108960E9433
:10083000B808C8010E94F4020E94A50781119ECF4A
:100840000E94BE019BCFC8010E94F4020E94A5072E
:1008500095CFC8010E94F4020E94A50780E00F9086
:100860000F900F900F900F90DF91CF911F910F91EC
:10087000FF90EF90DF90CF9008958F929F92BF925C
:10088000CF92DF92EF92FF920F931F93CF93DF935C
:1008900000D000D01F92CDB7DEB78C016B015D8315
:1008A0004C83B22EE12C0FB6F8940F92F801F28C23
:1008B000FF2041F186809780B601C8010E94DA02CC
:1008C000B1100FC0FA94F801F28E80858823B1F040
:1008D000C80108960E94CA08882381F00E94BE01C0
:1008E0000DC0F801978286828189882339F0C8017A
:1008F00041960E94CA0881110E94BE010F900FBE4E
:1009000081E053C08C819D81892B21F40F900FBE13
:1009100080E04BC0E11006C0CE0101960E94120992
:10092000EE24E3940F900FBE0E94E5060FB6F894F4
:100930000F92F801858D8F3F09F4158EF801868D91
:100940008F3F09F4168E0F900FBEBE016C5F7F4F74
:10095000CE0101960E941D0981111BC0C8010E9491
:100960007602882381F06C817D81C80141960E94C6
:10097000B808C8010E94F4020E94A507811193CF14
:100980000E94BE0190CFC8010E94F4020E94A507F8
:100990008ACFC8010E94F4020E94A507C8010E94E4
:1009A0007602882309F47FCF80E00F900F900F909C
:1009B0000F900F90DF91CF911F910F91FF90EF90CB
:1009C000DF90CF90BF909F908F900895E0912E0779
:1009D000F0912F078081811107C08FEF9FEF9093D7
:1009E0000607809305070895E0912E07F0912F07E1
:1009F0000580F681E02D0680F781E02D82819381CC
:100A000090930607809305070895CF93DF93EC0139
:100A10008F89988D0E948800CE010E948800DF9106
:100A2000CF9108956F927F928F929F92AF92BF92D3
:100A3000CF92DF92EF920F931F93CF93DF93CDB7B7
:100A4000DEB74C01F5018789908D215031093C01B9
:100A5000620E731E20E00FC0822F90E0FB01E80FB2
:100A6000F91F3081D501A80FB91F59963C93808199
:100A7000882319F02F5F283078F3F50110A2F3E0F6
:100A8000FE1520F40F2EF3E0EF2EF02DF501E68A8F
:100A9000C50102960E949700C5010C960E9497001E
:100AA000F501B186A08684E090E08E1991099587C2
:100AB0008487B38AA28A11A212A213A214A215A239
:100AC000A801B401C3010E942301F5019183808331
:100AD000C114D10419F0F601B182A082DF91CF9147
:100AE0001F910F91EF90DF90CF90BF90AF909F90AC
:100AF0008F907F906F900895CF93C0E010C08C2F9F
:100B000090E09C01220F331F220F331F220F331F4F
:100B1000820F931F8E5B984F0E948900CF5FC43075
:100B200070F389E397E00E94890080E397E00E94D8
:100B3000890083E297E00E9489008AE197E00E94A1
:100B4000890080E197E00E94890089E397E0909313
:100B50002F0780932E0780E397E090932D078093D3
:100B60002C07CF910895CF93DF93EC010FB6F89443
:100B70000F9280910F078F5F80930F078091660718
:100B800090916707892B59F4D0936707C093660744
:100B900080910F07813099F40E947C0510C08091EC
:100BA0000B0781110CC0E0916607F09167079689E9
:100BB0008E89891720F0D0936707C09366078091CC
:100BC00007078F5F809307078E8990910C0798170E
:100BD00010F480930C0790E09C01220F331F220F2A
:100BE000331F220F331F820F931FBE016E5F7F4F93
:100BF0008E5B984F0E949B000F900FBE80910B0759
:100C0000882351F0E0916607F091670796898E89F5
:100C1000981710F40E94BE01DF91CF910895FF92C2
:100C20000F931F93CF93DF93EC01F62E00910D07E6
:100C300010910E07809166079091670702960E94B7
:100C4000ED00CF3F8FEFD80769F4FF2059F0609196
:100C50006607709167076E5F7F4F80E197E00E94A3
:100C60009B002FC0C00FD11FE0916607F09167076E
:100C7000D383C283C017D10768F46091660770916F
:100C8000670780912C0790912D076E5F7F4F0E9420
:100C9000BC0017C0609166077091670780912E07AE
:100CA00090912F076E5F7F4F0E94BC0080910507D7
:100CB00090910607C817D90720F4D0930607C09370
:100CC0000507DF91CF911F910F91FF9008952F920B
:100CD0003F924F925F926F927F928F929F92AF92CC
:100CE000BF92CF92DF92EF92FF920F931F93CF9319
:100CF000DF933C011B015A012901CA010E945300E4
:100D00006C01892B71F086E290E00E945300EC01A7
:100D1000892B19F0D88ECF8A06C0C6010E948800A0
:100D200002C0C0E0D0E0209791F0950140E050E093
:100D3000812C912C5E016701E02E8201B101C3017B
:100D40000E941205CE010E94B30581E001C08FEF21
:100D5000DF91CF911F910F91FF90EF90DF90CF9097
:100D6000BF90AF909F908F907F906F905F904F90CB
:100D70003F902F900895EF92FF920F930F2EF3E084
:100D8000EF2EF7E0FF2EF02D00E020E030E044E60B
:100D900050E060E071E08BE598E00E9467068130EA
:100DA00081F4F8948FEF9FEF9093060780930507E7
:100DB00081E080930B0710920E0710920D070E949E
:100DC0008F010F91FF90EF900895809102078F5F40
:100DD000809302070895DF92EF92FF920F931F9383
:100DE000CF93DF9380910207811197C0E0900D07A8
:100DF000F0900E078FEFE81AF80AF0920E07E092D3
:100E00000D07E114F104B9F480912E0790912F079A
:100E100020912C0730912D0730932F0720932E0718
:100E200090932D0780932C07809108078F5F809304
:100E300008070E94E6048091050790910607E816CE
:100E4000F90628F4D12C53C0DD24D39401C0D12C51
:100E5000E0912E07F0912F078081811107C08FEF5D
:100E60009FEF909306078093050741C0E0912E07FE
:100E7000F0912F070580F681E02DC681D7818A8108
:100E80009B81E816F90628F49093060780930507DE
:100E90002EC08E010E5F1F4FC8010E94ED008C898D
:100EA0009D89892B21F0CE010C960E94ED008E8940
:100EB00090910C07981710F480930C0790E09C0118
:100EC000220F331F220F331F220F331F820F931F56
:100ED000B8018E5B984F0E949B009E89E091660747
:100EE000F09167078689981708F0AECFB1CFE091EF
:100EF0006607F0916707868990E0FC01EE0FFF1FFF
:100F0000EE0FFF1FEE0FFF1F8E0F9F1FFC01EE5B0A
:100F1000F84F8081823040F409C080910A078F5FCA
:100F200080930A07D12C02C0DD24D3948091090755
:100F3000882311F0DD24D3948D2DDF91CF911F9163
:100F40000F91FF90EF90DF9008950F931F93CF9331
:100F5000DF930FB6F8940F9280910207815080932F
:100F6000020780910207811158C080910F078111FB
:100F700033C056C0E0912807F0912907C681D78178
:100F8000CE010C960E94ED008E010E5F1F4FC8012E
:100F90000E94ED008E8990910C07981710F48093B1
:100FA0000C0790E09C01220F331F220F331F220FEA
:100FB000331F820F931FB8018E5B984F0E949B00D6
:100FC0009E89E0916607F09167078689981730F04F
:100FD00081E08093090702C0C0E0D0E08091230740
:100FE0008111C8CFCD2B11F00E94E604C0910A07F1
:100FF000CC2359F00E94EB06882319F081E08093FE
:101000000907C150B9F710920A0780910907882390
:1010100031F00E94BE0181E003C080E001C080E0A9
:101020000F900FBEDF91CF911F910F910895CF9335
:10103000DF93EC01892B49F00E94E50660E0CE01C8
:101040000E940F060E94A50701C080E0811102C026
:101050000E94BE01DF91CF910895CF93DF9324C00A
:101060000E94E506C0911A070E94A507CC23E1F073
:101070000FB6F8940F92E0911F07F0912007C681F8
:10108000D781CE0102960E94ED0080910F0781501A
:1010900080930F07809119078150809319070F9053
:1010A0000FBECE010E940505809119078111D8CF8E
:1010B000DF91CF9108950E942D08809142078230E0
:1010C000D0F30E94BE01F7CF80910207882321F060
:1010D00081E08093090708951092090720910C0779
:1010E00001C02150822F90E0FC01EE0FFF1FEE0F98
:1010F000FF1FEE0FFF1FE80FF91FEE5BF84F308167
:10110000332379F3AC01440F551F440F551F440F8F
:10111000551F480F591FDF010180F281E02D028029
:10112000F381E02D1296FC93EE9311974B5B584F91
:10113000E417F50729F442815381FD01528341836D
:10114000FC01EE0FFF1FEE0FFF1FEE0FFF1F8E0FB4
:101150009F1FFC01EE5BF84F0180F281E02D86813C
:101160009781909367078093660720930C070895F3
:10117000CF93DF93EB016091660770916707645F1F
:101180007F4F0E94BC0061E0CE010E940F06DF91FC
:10119000CF9108950F931F93CF93DF93DC011596A2
:1011A000ED91FC911697C681D7818E01045F1F4F88
:1011B000C8010E94ED008091020781111CC00A50F5
:1011C0001109C8010E94ED008E8990910C079817B3
:1011D00010F480930C0790E09C01220F331F220F24
:1011E000331F220F331F820F931FB8018E5B984F5E
:1011F0000E949B0005C0B80183E297E00E949B001B
:101200009E89E0916607F09167078689891720F427
:1012100081E08093090701C080E0DF91CF911F91A9
:101220000F91089520910807FC01208320910D075C
:1012300030910E073283218308950FB6F8940F92F0
:1012400040910D0750910E07DB012D913C912F3FEE
:10125000BFEF3B0719F1DC01FC91E0910807FE1795
:1012600039F01196ED91FC9112974E175F07C0F47B
:10127000DC011196ED91FC911297DA01AE1BBF0BC8
:10128000A217B30778F4DB01E41BF50B2E0F3F1F09
:101290002D933C930E94120980E005C080E003C0BA
:1012A00081E001C081E00F900FBE089581E080933E
:1012B00009070895CF93DF931F92CDB7DEB720E0E3
:1012C0004FEF5FEFBE016F5F7F4F80916807909196
:1012D00069070E943D04813091F789810E946F0B5C
:1012E000EECFCF93DF931F92CDB7DEB70E94330CC2
:1012F000898320E04AE050E0BE016F5F7F4F80911C
:101300006A0790916B070E94AB03F0CFCF93DF93F6
:10131000CDB7DEB761970FB6F894DEBF0FBECDBF75
:1013200010E000E003C010E001C00F2D20E04FEFFF
:101330005FEFBE016F5F7F4F80916A0790916B07EF
:101340000E943D04813091F7111107C089818432D8
:1013500069F78A8311E001E0E9CF113039F70031F4
:1013600010F7FF24F394F00E8981E2E0F0E0EC0F37
:10137000FD1FE00FF11D80838A30B9F66F2DCE017D
:1013800002960E94550A0F2D10E0D0CF60E875E25A
:1013900080E090E00E94F50B0E94100A0E941C0B56
:1013A00040E061E080E40E94810390936B078093AA
:1013B0006A0740E061E080E10E9481039093690741
:1013C0008093680720916A0730916B07232B39F1CE
:1013D000892B29F1E12CF12C02E020E030E044E6F9
:1013E00050E065E071E081E799E00E94670601E066
:1013F00020E030E048EC50E06CE071E086E899E0F5
:101400000E94670600E020E030E044E650E066E13C
:1014100071E08AE599E00E9467060E94BB06FFCF53
:1014200084B1816084B984B1826084B90895AC01CB
:1014300090E080E006C0FA01E90FF11D2081820FE3
:101440009F5F9617C0F308951F93CF93DF93CDB797
:10145000DEB727970FB6F894DEBF0FBECDBF94E27C
:1014600099838A836B834C832D8364E0CE0102963B
:101470000E94170A8E838AE08F8310E00AC0E1E0A1
:10148000F0E0EC0FFD1FE10FF11D80810E940C0CBC
:101490001F5F1730A0F327960FB6F894DEBF0FBE7C
:1014A000CDBFDF91CF911F910895CF92DF92EF9240
:1014B000FF920F931F93CF93DF931F92CDB7DEB7A9
:1014C000663008F454C0FC011181113009F04FC09E
:1014D0000281D380073531F4673009F048C0C580F8
:1014E00064E00DC0023509F042C0663009F03FC02B
:1014F000E62FF0E03297E80FF91FC08063E07C012F
:1015000001960E94170AC81232C00735F1F4F7019C
:1015100084818983FFE0FD1528F0ED2DF0E0E4598A
:10152000F84F808320E04FEF5FEFBE016F5F7F4F8A
:1015300080916807909169070E94AB0329814D2D26
:10154000602F812F0E94240A12C0023581F4198273
:101550008FE08D1530F0ED2DF0E0E459F84F8081EB
:10156000898329814D2D602F812F0E94240A0F909D
:10157000DF91CF911F910F91FF90EF90DF90CF906F
:1015800008951F920F920FB60F9211240F931F937D
:101590002F933F934F935F936F937F938F939F937B
:1015A000AF93BF9300917D0710917E0720917F0735
:1015B0003091800790917C07B901A8014F5F5F4F80
:1015C0006F4F7F4F83E0890F8D3740F086E8890F9A
:1015D000B901A8014E5F5F4F6F4F7F4F80937C072B
:1015E00040937D0750937E0760937F077093800739
:1015F0008091810790918207A0918307B091840721
:101600000196A11DB11D8093810790938207A0933D
:101610008307B0938407BF91AF919F918F917F9182
:101620006F915F914F913F912F911F910F910F906B
:101630000FBE0F901F901895F89414BC83E085BDE1
:10164000EEE6F0E080818160808310928107109245
:101650008207109283071092840710927D071092E0
:101660007E0710927F071092800710927C07789473
:1016700008952FB7F89431E009C060917D0770910B
:101680007E0780917F079091800730E03111F5CF80
:101690002FBF08958F929F92AF92BF92CF92DF9209
:1016A000EF92FF924B015C010E94390B6B017C01B0
:1016B0000E94390B6C197D098E099F090E945B0CF1
:1016C000A50194010E94560C882394F3FF90EF909B
:1016D000DF90CF90BF90AF909F908F90089594B17E
:1016E000906294B995B1906295B990E00E944A0BCE
:1016F00085B18F7D85B908951F920F920FB60F9215
:1017000011242F933F938F939F93EF93FF933091E7
:10171000C6008091860790E001968F739078992398
:1017200024F40197806C9F6F0196209185072817FC
:1017300041F0E0918607F0E0E757F84F308380935F
:101740008607FF91EF919F918F913F912F910F907D
:101750000FBE0F901F9018951F920F920FB60F9209
:1017600011248F939F93EF93FF939091880780911B
:101770008707981306C0E1ECF0E080818F7D8083BD
:1017800014C0E0918707F0E0E753F84F8081809321
:10179000C6008091870790E00196907899231CF409
:1017A00001979F6F019680938707FF91EF919F911B
:1017B0008F910F900FBE0F901F9018951F920F9250
:1017C0000FB60F9211248F939F9390918807809169
:1017D0008707981303C08BB1837F8BB99F918F913B
:1017E0000F900FBE0F901F9018951092C50087E6BE
:1017F0008093C40088ED8093C10086E08093C2008E
:101800008AB18C608AB98BB1837F8BB9E0ECF0E050
:101810008081806480830895CF93C82F8BB18C60C2
:101820008BB98091880790E00196907899231CF4F9
:1018300001979F6F019690918707891305C081E0FA
:1018400090E00E941708EDCFE0918807F0E0E753A1
:10185000F84FC08380938807E1ECF0E080818062DC
:101860008083CF91089504C081E090E00E94170822
:1018700090918607809185079817B1F3E0918507CD
:10188000F0E0E757F84F80812091850730E02F5F27
:101890003F4F2F733078332334F421503109206CBB
:1018A0003F6F2F5F3F4F2093850708950E94980C4C
:1018B00008F481E00895E89409C097FB3EF4909500
:1018C0008095709561957F4F8F4F9F4F9923A9F019
:1018D000F92F96E9BB279395F695879577956795A8
:1018E000B795F111F8CFFAF4BB0F11F460FF1BC0EC
:1018F0006F5F7F4F8F4F9F4F16C0882311F096E97F
:1019000011C0772321F09EE8872F762F05C066232C
:1019100071F096E8862F70E060E02AF09A95660FE5
:10192000771F881FDAF7880F9695879597F908959E
:10193000990F0008550FAA0BE0E8FEEF16161706E0
:10194000E807F907C0F012161306E407F50798F048
:10195000621B730B840B950B39F40A2661F0232B61
:10196000242B252B21F408950A2609F4A140A695DD
:101970008FEF811D811D0895FB01DC0102C00190E4
:0E1980000D9241505040D8F70895F894FFCFD3
:10198E0049444C450052785461736B0050726F7429
:10199E006F5461736B004D6F746572315461736B6C
:0219AE00000037
:00000001FF
