:100000000C9434000C9451000C9451000C94510049
:100010000C9451000C9451000C9451000C9451001C
:100020000C9451000C9451000C9451000C947302E8
:100030000C9451000C9451000C9451000C945100FC
:100040000C9451000C9451000C94BA090C94EA09D8
:100050000C941E0A0C9451000C9451000C94510005
:100060000C9451000C94510011241FBECFEFD8E026
:10007000DEBFCDBF11E0A0E0B1E0E8E5F5E102C0F0
:1000800005900D92A431B107D9F727E0A4E1B1E0C2
:1000900001C01D92A03EB207E1F70E948E090C94A8
:1000A000AA0A0C940000CF93DF93EC010E94E506AE
:1000B0008091140190911501892B31F489E191E02F
:1000C000909315018093140120911601309117012E
:1000D000C9018C0F9D1F8B3D45E0940770F42817D4
:1000E000390770F4C0911401D0911501C20FD31FCC
:1000F000909317018093160105C0C0E0D0E002C0C4
:10010000C0E0D0E00E94A507CE01DF91CF91089515
:100110000895FC010396928381832FEF3FEF348390
:100120002383968385839087878310820895FC01BB
:10013000118610860895CF93DF939C01FB01DC01AB
:100140001196CD91DC911297D383C2838C819D81CE
:10015000958384838C819D81DC0113967C936E93BF
:1001600012977D836C8331872087F90180818F5FAF
:100170008083DF91CF910895CF93DF93EB01488186
:1001800059814F3F2FEF520721F4FC01A781B08521
:100190000DC0DC01139601C0DF011296ED91FC91B8
:1001A00013972081318142175307B0F71296ED91D2
:1001B000FC911397FB83EA83D583C483BD83AC830F
:1001C0001396DC93CE93129799878887FC01208140
:1001D0002F5F2083DF91CF910895CF93DF93FC01B0
:1001E000A085B185C281D381848195819D838C83D3
:1001F000C481D581828193819B838A8311968D915D
:100200009C911297E817F90731F484819581129631
:100210009C938E931197118610868C9181508C93AC
:10022000DF91CF9108951092890089EF8093880023
:10023000E1E8F0E080818B608083EFE6F0E0808190
:1002400082608083089531E1FC013083319722E29E
:1002500020833197A3E3A083319760833197708324
:1002600031971082319760E860833197108231971F
:1002700062E06083319763E06083319764E060837C
:10028000319765E06083319766E06083319767E07E
:100290006083319768E06083319769E060833197CC
:1002A00060E1608331973083319732E13083319759
:1002B00033E13083319734E13083319735E1308356
:1002C000319736E13083319737E13083319738E128
:1002D0003083319739E13083319730E23083319781
:1002E00031E2308331972083319723E220833197A5
:1002F000408331975083319726E22083319727E25C
:100300002083319728E22083319729E22083319797
:1003100020E32083319721E32083869708950E946C
:100320001301A0915807B0915907CD91CDBFDD9130
:10033000DEBFFF91EF91DF91CF91BF91AF919F9180
:100340008F917F916F915F914F913F912F911F916D
:100350000F91FF90EF90DF90CF90BF90AF909F9064
:100360008F907F906F905F904F903F902F901F9055
:100370000F900FBE0F90089581E008950F920FB671
:10038000F8940F921F9211242F923F924F925F92F6
:100390006F927F928F929F92AF92BF92CF92DF9295
:1003A000EF92FF920F931F932F933F934F935F937F
:1003B0006F937F938F939F93AF93BF93CF93DF936D
:1003C000EF93FF93A0915807B09159070DB60D9286
:1003D0000EB60D920E946408A0915807B09159077B
:1003E000CD91CDBFDD91DEBFFF91EF91DF91CF9138
:1003F000BF91AF919F918F917F916F915F914F913D
:100400003F912F911F910F91FF90EF90DF90CF9030
:10041000BF90AF909F908F907F906F905F904F9024
:100420003F902F901F900F900FBE0F9008950F9246
:100430000FB6F8940F921F9211242F923F924F9271
:100440005F926F927F928F929F92AF92BF92CF9264
:10045000DF92EF92FF920F931F932F933F934F934F
:100460005F936F937F938F939F93AF93BF93CF933C
:10047000DF93EF93FF93A0915807B09159070DB602
:100480000D920EB60D920E94EB0681110E94640837
:10049000A0915807B0915907CD91CDBFDD91DEBF36
:1004A000FF91EF91DF91CF91BF91AF919F918F918C
:1004B0007F916F915F914F913F912F911F910F917C
:1004C000FF90EF90DF90CF90BF90AF909F908F9074
:1004D0007F906F905F904F903F902F901F900F9064
:1004E0000FBE0F9008950E94170218950FB6F8944A
:1004F0000F92FC01828D811102C081E001C080E079
:100500000F900FBE08950FB6F8940F92FC01228D44
:10051000838D281302C081E001C080E00F900FBEE0
:1005200008950F931F93CF93DF93EC01042F1A8D3F
:100530004C8D4423B9F1011116C050E08C819D818E
:100540000E94A10A2C8D8C819D81820F911D9D831B
:100550008C832A813B818217930720F188819981BE
:100560009D838C831FC050E08E819F810E94A10AD1
:100570008C8D90E09195819591092E813F81280F76
:10058000391F3F832E83488159812417350730F462
:100590002A813B81820F931F9F838E83023011F447
:1005A000111111501F5F1A8F80E0DF91CF911F91C1
:1005B0000F910895FC01448D4423A9F050E0268159
:1005C0003781240F351F3783268382819381281733
:1005D000390720F08081918197838683CB016681E2
:1005E00077810E94A10A08951F93CF93DF93EC01B6
:1005F0000FB6F8940F921E8D0BC08989882351F095
:10060000CE0141960E94CA0881110E9456091150DC
:1006100011169CF38FEF8E8F0F900FBE0FB6F894CC
:100620000F921D8D0BC08885882351F0CE0108964E
:100630000E94CA0881110E945609115011169CF39C
:100640008FEF8D8F0F900FBEDF91CF911F91089587
:10065000CF93DF93EC010FB6F8940F92E881F98104
:100660008B8D90E02C8D30E0829FA001839F500DF8
:10067000929F500D11244E0F5F1F5B834A831A8E89
:10068000FD83EC830197289FA001299F500D389F7F
:10069000500D1124CF01840F951F9F838E838FEF00
:1006A0008D8F8E8F61110CC08885882389F0CE01D3
:1006B00008960E94CA08882359F00E94BE0108C00B
:1006C000CE0108960E948900CE0141960E948900C1
:1006D0000F900FBE81E0DF91CF9108950F931F938C
:1006E000F801611103C01183008302C0518340836C
:1006F000838F648F61E0CF010E9428031F910F91C7
:100700000895DF92EF92FF920F931F93CF93DF93A1
:10071000E82EF62ED42E662321F0869FC0011124E8
:1007200002C080E090E04F960E945300EC010097D9
:1007300049F08C012D2DAC01415E5F4F6F2D8E2D48
:100740000E946E03CE01DF91CF911F910F91FF9018
:10075000EF90DF900895CF92DF92EF92FF920F9388
:100760001F93CF93DF9300D000D01F92CDB7DEB799
:100770008C017B015D834C83C22ED12C0FB6F89483
:100780000F92F801928D838D981718F0F2E0CF1236
:1007900019C04C2DB701C8010E949102F80191893E
:1007A000992349F0C80141960E94CA08882331F074
:1007B0000E94BE0103C081110E94BE010F900FBEB6
:1007C00081E04DC08C819D81892B21F40F900FBE5B
:1007D00080E045C0D11006C0CE0101960E941209EA
:1007E000DD24D3940F900FBE0E94E5060FB6F89457
:1007F0000F92F801858D8F3F09F4158EF801868DD3
:100800008F3F09F4168E0F900FBEBE016C5F7F4FB5
:10081000CE0101960E941D0981111BC0C8010E94D2
:100820008302882381F06C817D81C80108960E9433
:10083000B808C8010E94F4020E94A50781119ECF4A
:100840000E94BE019BCFC8010E94F4020E94A5072E
:1008500095CFC8010E94F4020E94A50780E00F9086
:100860000F900F900F900F90DF91CF911F910F91EC
:10087000FF90EF90DF90CF9008958F929F92BF925C
:10088000CF92DF92EF92FF920F931F93CF93DF935C
:1008900000D000D01F92CDB7DEB78C016B015D8315
:1008A0004C83B22EE12C0FB6F8940F92F801F28C23
:1008B000FF2041F186809780B601C8010E94DA02CC
:1008C000B1100FC0FA94F801F28E80858823B1F040
:1008D000C80108960E94CA08882381F00E94BE01C0
:1008E0000DC0F801978286828189882339F0C8017A
:1008F00041960E94CA0881110E94BE010F900FBE4E
:1009000081E053C08C819D81892B21F40F900FBE13
:1009100080E04BC0E11006C0CE0101960E94120992
:10092000EE24E3940F900FBE0E94E5060FB6F894F4
:100930000F92F801858D8F3F09F4158EF801868D91
:100940008F3F09F4168E0F900FBEBE016C5F7F4F74
:10095000CE0101960E941D0981111BC0C8010E9491
:100960007602882381F06C817D81C80141960E94C6
:10097000B808C8010E94F4020E94A507811193CF14
:100980000E94BE0190CFC8010E94F4020E94A507F8
:100990008ACFC8010E94F4020E94A507C8010E94E4
:1009A0007602882309F47FCF80E00F900F900F909C
:1009B0000F900F90DF91CF911F910F91FF90EF90CB
:1009C000DF90CF90BF909F908F900895E091200787
:1009D000F09121078081811107C08FEF9FEF9093E5
:1009E000F8068093F7060895E0912007F09121071B
:1009F0000580F681E02D0680F781E02D82819381CC
:100A00009093F8068093F7060895CF93DF93EC0157
:100A10008F89988D0E948800CE010E948800DF9106
:100A2000CF9108956F927F928F929F92AF92BF92D3
:100A3000CF92DF92EF920F931F93CF93DF93CDB7B7
:100A4000DEB74C01F5018789908D215031093C01B9
:100A5000620E731E20E00FC0822F90E0FB01E80FB2
:100A6000F91F3081D501A80FB91F59963C93808199
:100A7000882319F02F5F283078F3F50110A2F3E0F6
:100A8000FE1520F40F2EF3E0EF2EF02DF501E68A8F
:100A9000C50102960E949700C5010C960E9497001E
:100AA000F501B186A08684E090E08E1991099587C2
:100AB0008487B38AA28A11A212A213A214A215A239
:100AC000A801B401C3010E942301F5019183808331
:100AD000C114D10419F0F601B182A082DF91CF9147
:100AE0001F910F91EF90DF90CF90BF90AF909F90AC
:100AF0008F907F906F900895CF93C0E010C08C2F9F
:100B000090E09C01220F331F220F331F220F331F4F
:100B1000820F931F8C5C984F0E948900CF5FC43076
:100B200070F38BE297E00E94890082E297E00E94D6
:100B3000890085E197E00E9489008CE097E00E949F
:100B4000890082E097E00E9489008BE297E0909311
:100B500021078093200782E297E090931F078093FC
:100B60001E07CF910895CF93DF93EC010FB6F89451
:100B70000F92809101078F5F809301078091580742
:100B800090915907892B59F4D0935907C09358076E
:100B900080910107813099F40E947C0510C08091FA
:100BA000FD0681110CC0E0915807F0915907968914
:100BB0008E89891720F0D0935907C09358078091E8
:100BC000F9068F5F8093F9068E899091FE0698173B
:100BD00010F48093FE0690E09C01220F331F220F39
:100BE000331F220F331F820F931FBE016E5F7F4F93
:100BF0008C5C984F0E949B000F900FBE8091FD0669
:100C0000882351F0E0915807F091590796898E8911
:100C1000981710F40E94BE01DF91CF910895FF92C2
:100C20000F931F93CF93DF93EC01F62E0091FF06F5
:100C300010910007809158079091590702960E94E1
:100C4000ED00CF3F8FEFD80769F4FF2059F0609196
:100C50005807709159076E5F7F4F82E097E00E94BE
:100C60009B002FC0C00FD11FE0915807F09159078A
:100C7000D383C283C017D10768F46091580770917D
:100C8000590780911E0790911F076E5F7F4F0E944A
:100C9000BC0017C0609158077091590780912007D8
:100CA000909121076E5F7F4F0E94BC008091F706F4
:100CB0009091F806C817D90720F4D093F806C0938E
:100CC000F706DF91CF911F910F91FF9008952F921A
:100CD0003F924F925F926F927F928F929F92AF92CC
:100CE000BF92CF92DF92EF92FF920F931F93CF9319
:100CF000DF933C011B015A012901CA010E945300E4
:100D00006C01892B71F086E290E00E945300EC01A7
:100D1000892B19F0D88ECF8A06C0C6010E948800A0
:100D200002C0C0E0D0E0209791F0950140E050E093
:100D3000812C912C5E016701E02E8201B101C3017B
:100D40000E941205CE010E94B30581E001C08FEF21
:100D5000DF91CF911F910F91FF90EF90DF90CF9097
:100D6000BF90AF909F908F907F906F905F904F90CB
:100D70003F902F900895EF92FF920F930F2EF5EF73
:100D8000EF2EF6E0FF2EF02D00E020E030E045E50C
:100D900050E060E071E08BE598E00E9467068130EA
:100DA00081F4F8948FEF9FEF9093F8068093F70605
:100DB00081E08093FD06109200071092FF060E94CA
:100DC0008F010F91FF90EF9008958091F4068F5F4F
:100DD0008093F4060895DF92EF92FF920F931F9392
:100DE000CF93DF938091F406811197C0E090FF06C6
:100DF000F09000078FEFE81AF80AF0920007E092EF
:100E0000FF06E114F104B9F48091200790912107C5
:100E100020911E0730911F07309321072093200750
:100E200090931F0780931E078091FA068F5F80932F
:100E3000FA060E94E6048091F7069091F806E816FB
:100E4000F90628F4D12C53C0DD24D39401C0D12C51
:100E5000E0912007F09121078081811107C08FEF79
:100E60009FEF9093F8068093F70641C0E09120072A
:100E7000F09121070580F681E02DC681D7818A8116
:100E80009B81E816F90628F49093F8068093F706FC
:100E90002EC08E010E5F1F4FC8010E94ED008C898D
:100EA0009D89892B21F0CE010C960E94ED008E8940
:100EB0009091FE06981710F48093FE0690E09C0136
:100EC000220F331F220F331F220F331F820F931F56
:100ED000B8018C5C984F0E949B009E89E091580756
:100EE000F09159078689981708F0AECFB1CFE091FD
:100EF0005807F0915907868990E0FC01EE0FFF1F1B
:100F0000EE0FFF1FEE0FFF1F8E0F9F1FFC01EC5C0B
:100F1000F84F8081823040F409C08091FC068F5FD9
:100F20008093FC06D12C02C0DD24D3948091FB0673
:100F3000882311F0DD24D3948D2DDF91CF911F9163
:100F40000F91FF90EF90DF9008950F931F93CF9331
:100F5000DF930FB6F8940F928091F406815080933E
:100F6000F4068091F406811158C080910107811127
:100F700033C056C0E0911A07F0911B07C681D78194
:100F8000CE010C960E94ED008E010E5F1F4FC8012E
:100F90000E94ED008E899091FE06981710F48093C0
:100FA000FE0690E09C01220F331F220F331F220FF9
:100FB000331F820F931FB8018C5C984F0E949B00D7
:100FC0009E89E0915807F09159078689981730F06B
:100FD00081E08093FB0602C0C0E0D0E0809115075D
:100FE0008111C8CFCD2B11F00E94E604C091FC0600
:100FF000CC2359F00E94EB06882319F081E08093FE
:10100000FB06C150B9F71092FC068091FB068823BD
:1010100031F00E94BE0181E003C080E001C080E0A9
:101020000F900FBEDF91CF911F910F910895CF9335
:10103000DF93EC01892B49F00E94E50660E0CE01C8
:101040000E940F060E94A50701C080E0811102C026
:101050000E94BE01DF91CF910895CF93DF9324C00A
:101060000E94E506C0910C070E94A507CC23E1F081
:101070000FB6F8940F92E0911107F0911207C68114
:10108000D781CE0102960E94ED0080910107815028
:101090008093010780910B07815080930B070F907D
:1010A0000FBECE010E94050580910B078111D8CF9C
:1010B000DF91CF9108950E942D08809134078230EE
:1010C000D0F30E94BE01F7CF8091F406882321F06F
:1010D00081E08093FB0608951092FB062091FE06A6
:1010E00001C02150822F90E0FC01EE0FFF1FEE0F98
:1010F000FF1FEE0FFF1FE80FF91FEC5CF84F308168
:10110000332379F3AC01440F551F440F551F440F8F
:10111000551F480F591FDF010180F281E02D028029
:10112000F381E02D1296FC93EE931197495C584F92
:10113000E417F50729F442815381FD01528341836D
:10114000FC01EE0FFF1FEE0FFF1FEE0FFF1F8E0FB4
:101150009F1FFC01EC5CF84F0180F281E02D86813D
:10116000978190935907809358072093FE0608951E
:10117000CF93DF93EB016091580770915907645F3B
:101180007F4F0E94BC0061E0CE010E940F06DF91FC
:10119000CF9108950F931F93CF93DF93DC011596A2
:1011A000ED91FC911697C681D7818E01045F1F4F88
:1011B000C8010E94ED008091F40681111CC00A5004
:1011C0001109C8010E94ED008E899091FE069817C2
:1011D00010F48093FE0690E09C01220F331F220F33
:1011E000331F220F331F820F931FB8018C5C984F5F
:1011F0000E949B0005C0B80185E197E00E949B001A
:101200009E89E0915807F09159078689891720F443
:1012100081E08093FB0601C080E0DF91CF911F91B8
:101220000F9108952091FA06FC0120832091FF067A
:10123000309100073283218308950FB6F8940F92FE
:101240004091FF0650910007DB012D913C912F3F0B
:10125000BFEF3B0719F1DC01FC91E091FA06FE17A4
:1012600039F01196ED91FC9112974E175F07C0F47B
:10127000DC011196ED91FC911297DA01AE1BBF0BC8
:10128000A217B30778F4DB01E41BF50B2E0F3F1F09
:101290002D933C930E94120980E005C080E003C0BA
:1012A00081E001C081E00F900FBE089581E080933E
:1012B000FB060895CF93DF931F92CDB7DEB70E9450
:1012C000980A882379F00E94750A898320E040E01B
:1012D00050E0BE016F5F7F4F80915A0790915B078E
:1012E0000E94AB0381E090E00E941708E8CFCF9303
:1012F000DF931F92CDB7DEB720E04FEF5FEFBE0167
:101300006F5F7F4F80915A0790915B070E943D0469
:10131000813091F789810E944C0AEECF60E875E236
:1013200080E090E00E94350A40E061E080E20E94A7
:10133000810390935B0780935A07892BD1F0E12CAE
:10134000F12C02E020E030E047E850E065E071E099
:101350008AE599E00E94670601E020E030E047E876
:1013600050E06CE071E087E799E00E9467060E9418
:10137000BB06FFCF1F920F920FB60F9211242F932F
:101380003F938F939F93EF93FF933091C60080918B
:101390005D0790E001968F739078992324F401976C
:1013A000806C9F6F019620915C07281741F0E091B7
:1013B0005D07F0E0E05AF84F308380935D07FF91BE
:1013C000EF919F918F913F912F910F900FBE0F90B2
:1013D0001F9018951F920F920FB60F9211248F93A2
:1013E0009F93EF93FF9390915F0780915E0798130F
:1013F00006C0E1ECF0E080818F7D808316C0E09133
:101400005E07F0E0E056F84F80818093C60080913F
:101410005E0790E001968F739078992324F40197EA
:10142000806C9F6F019680935E07FF91EF919F9173
:101430008F910F900FBE0F901F9018951F920F92D3
:101440000FB60F9211248F939F9390915F07809115
:101450005E07981303C08BB1837F8BB99F918F91E7
:101460000F900FBE0F901F9018951092C50087E641
:101470008093C40088ED8093C10086E08093C20011
:101480008AB18C608AB98BB1837F8BB9E0ECF0E0D4
:101490008081806480830895CF93C82F8BB18C6046
:1014A0008BB980915F0790E001968F7390789923B4
:1014B00024F40197806C9F6F019690915E078913C9
:1014C00005C081E090E00E941708EBCFE0915F0734
:1014D000F0E0E056F84FC08380935F07E1ECF0E066
:1014E000808180628083CF91089504C081E090E084
:1014F0000E94170890915D0780915C079817B1F3DF
:10150000E0915C07F0E0E05AF84F808120915C07A1
:1015100030E02F5F3F4F2F733078332334F4215066
:101520003109206C3F6F2F5F3F4F20935C07089578
:1015300020915D0790915C0781E0291301C080E054
:101540000895FB01DC0102C001900D924150504012
:08155000D8F70895F894FFCFCD
:1015580049444C450052785461736B005478546187
:04156800736B0000A1
:00000001FF
