:100000000C9434000C9451000C9451000C94510049
:100010000C9451000C9451000C9451000C9451001C
:100020000C9451000C9451000C9451000C947302E8
:100030000C9451000C9451000C9451000C945100FC
:100040000C94390B0C9451000C94E70B0C94170C86
:100050000C94490C0C9451000C9451000C945100D8
:100060000C9451000C94510011241FBECFEFD8E026
:10007000DEBFCDBF11E0A0E0B1E0E4ECFCE102C0E6
:1000800005900D92AC32B107D9F728E0ACE2B1E0AF
:1000900001C01D92A53DB207E1F70E94DE090C9454
:1000A000600E0C940000CF93DF93EC010E94E506F4
:1000B00080912C0190912D01892B31F481E391E005
:1000C00090932D0180932C0120912E0130912F01CE
:1000D000C9018C0F9D1F8B3D45E0940770F42817D4
:1000E000390770F4C0912C01D0912D01C20FD31F9C
:1000F00090932F0180932E0105C0C0E0D0E002C094
:10010000C0E0D0E00E94A507CE01DF91CF91089515
:100110000895FC010396928381832FEF3FEF348390
:100120002383968385839087878310820895FC01BB
:10013000118610860895CF93DF939C01FB01DC01AB
:100140001196CD91DC911297D383C2838C819D81CE
:10015000958384838C819D81DC0113967C936E93BF
:1001600012977D836C8331872087F90180818F5FAF
:100170008083DF91CF910895CF93DF93EB01488186
:1001800059814F3F2FEF520721F4FC01A781B08521
:100190000DC0DC01139601C0DF011296ED91FC91B8
:1001A00013972081318142175307B0F71296ED91D2
:1001B000FC911397FB83EA83D583C483BD83AC830F
:1001C0001396DC93CE93129799878887FC01208140
:1001D0002F5F2083DF91CF910895CF93DF93FC01B0
:1001E000A085B185C281D381848195819D838C83D3
:1001F000C481D581828193819B838A8311968D915D
:100200009C911297E817F90731F484819581129631
:100210009C938E931197118610868C9181508C93AC
:10022000DF91CF9108951092890089EF8093880023
:10023000E1E8F0E080818B608083EFE6F0E0808190
:1002400082608083089531E1FC013083319722E29E
:1002500020833197A3E3A083319760833197708324
:1002600031971082319760E860833197108231971F
:1002700062E06083319763E06083319764E060837C
:10028000319765E06083319766E06083319767E07E
:100290006083319768E06083319769E060833197CC
:1002A00060E1608331973083319732E13083319759
:1002B00033E13083319734E13083319735E1308356
:1002C000319736E13083319737E13083319738E128
:1002D0003083319739E13083319730E23083319781
:1002E00031E2308331972083319723E220833197A5
:1002F000408331975083319726E22083319727E25C
:100300002083319728E22083319729E22083319797
:1003100020E32083319721E32083869708950E946C
:100320001301A0917007B0917107CD91CDBFDD9100
:10033000DEBFFF91EF91DF91CF91BF91AF919F9180
:100340008F917F916F915F914F913F912F911F916D
:100350000F91FF90EF90DF90CF90BF90AF909F9064
:100360008F907F906F905F904F903F902F901F9055
:100370000F900FBE0F90089581E008950F920FB671
:10038000F8940F921F9211242F923F924F925F92F6
:100390006F927F928F929F92AF92BF92CF92DF9295
:1003A000EF92FF920F931F932F933F934F935F937F
:1003B0006F937F938F939F93AF93BF93CF93DF936D
:1003C000EF93FF93A0917007B09171070DB60D9256
:1003D0000EB60D920E946408A0917007B09171074B
:1003E000CD91CDBFDD91DEBFFF91EF91DF91CF9138
:1003F000BF91AF919F918F917F916F915F914F913D
:100400003F912F911F910F91FF90EF90DF90CF9030
:10041000BF90AF909F908F907F906F905F904F9024
:100420003F902F901F900F900FBE0F9008950F9246
:100430000FB6F8940F921F9211242F923F924F9271
:100440005F926F927F928F929F92AF92BF92CF9264
:10045000DF92EF92FF920F931F932F933F934F934F
:100460005F936F937F938F939F93AF93BF93CF933C
:10047000DF93EF93FF93A0917007B09171070DB6D2
:100480000D920EB60D920E94EB0681110E94640837
:10049000A0917007B0917107CD91CDBFDD91DEBF06
:1004A000FF91EF91DF91CF91BF91AF919F918F918C
:1004B0007F916F915F914F913F912F911F910F917C
:1004C000FF90EF90DF90CF90BF90AF909F908F9074
:1004D0007F906F905F904F903F902F901F900F9064
:1004E0000FBE0F9008950E94170218950FB6F8944A
:1004F0000F92FC01828D811102C081E001C080E079
:100500000F900FBE08950FB6F8940F92FC01228D44
:10051000838D281302C081E001C080E00F900FBEE0
:1005200008950F931F93CF93DF93EC01042F1A8D3F
:100530004C8D4423B9F1011116C050E08C819D818E
:100540000E94570E2C8D8C819D81820F911D9D8361
:100550008C832A813B818217930720F188819981BE
:100560009D838C831FC050E08E819F810E94570E17
:100570008C8D90E09195819591092E813F81280F76
:10058000391F3F832E83488159812417350730F462
:100590002A813B81820F931F9F838E83023011F447
:1005A000111111501F5F1A8F80E0DF91CF911F91C1
:1005B0000F910895FC01448D4423A9F050E0268159
:1005C0003781240F351F3783268382819381281733
:1005D000390720F08081918197838683CB016681E2
:1005E00077810E94570E08951F93CF93DF93EC01FC
:1005F0000FB6F8940F921E8D0BC08989882351F095
:10060000CE0141960E94CA0881110E9456091150DC
:1006100011169CF38FEF8E8F0F900FBE0FB6F894CC
:100620000F921D8D0BC08885882351F0CE0108964E
:100630000E94CA0881110E945609115011169CF39C
:100640008FEF8D8F0F900FBEDF91CF911F91089587
:10065000CF93DF93EC010FB6F8940F92E881F98104
:100660008B8D90E02C8D30E0829FA001839F500DF8
:10067000929F500D11244E0F5F1F5B834A831A8E89
:10068000FD83EC830197289FA001299F500D389F7F
:10069000500D1124CF01840F951F9F838E838FEF00
:1006A0008D8F8E8F61110CC08885882389F0CE01D3
:1006B00008960E94CA08882359F00E94BE0108C00B
:1006C000CE0108960E948900CE0141960E948900C1
:1006D0000F900FBE81E0DF91CF9108950F931F938C
:1006E000F801611103C01183008302C0518340836C
:1006F000838F648F61E0CF010E9428031F910F91C7
:100700000895DF92EF92FF920F931F93CF93DF93A1
:10071000E82EF62ED42E662321F0869FC0011124E8
:1007200002C080E090E04F960E945300EC010097D9
:1007300049F08C012D2DAC01415E5F4F6F2D8E2D48
:100740000E946E03CE01DF91CF911F910F91FF9018
:10075000EF90DF900895CF92DF92EF92FF920F9388
:100760001F93CF93DF9300D000D01F92CDB7DEB799
:100770008C017B015D834C83C22ED12C0FB6F89483
:100780000F92F801928D838D981718F0F2E0CF1236
:1007900019C04C2DB701C8010E949102F80191893E
:1007A000992349F0C80141960E94CA08882331F074
:1007B0000E94BE0103C081110E94BE010F900FBEB6
:1007C00081E04DC08C819D81892B21F40F900FBE5B
:1007D00080E045C0D11006C0CE0101960E941209EA
:1007E000DD24D3940F900FBE0E94E5060FB6F89457
:1007F0000F92F801858D8F3F09F4158EF801868DD3
:100800008F3F09F4168E0F900FBEBE016C5F7F4FB5
:10081000CE0101960E941D0981111BC0C8010E94D2
:100820008302882381F06C817D81C80108960E9433
:10083000B808C8010E94F4020E94A50781119ECF4A
:100840000E94BE019BCFC8010E94F4020E94A5072E
:1008500095CFC8010E94F4020E94A50780E00F9086
:100860000F900F900F900F90DF91CF911F910F91EC
:10087000FF90EF90DF90CF9008958F929F92BF925C
:10088000CF92DF92EF92FF920F931F93CF93DF935C
:1008900000D000D01F92CDB7DEB78C016B015D8315
:1008A0004C83B22EE12C0FB6F8940F92F801F28C23
:1008B000FF2041F186809780B601C8010E94DA02CC
:1008C000B1100FC0FA94F801F28E80858823B1F040
:1008D000C80108960E94CA08882381F00E94BE01C0
:1008E0000DC0F801978286828189882339F0C8017A
:1008F00041960E94CA0881110E94BE010F900FBE4E
:1009000081E053C08C819D81892B21F40F900FBE13
:1009100080E04BC0E11006C0CE0101960E94120992
:10092000EE24E3940F900FBE0E94E5060FB6F894F4
:100930000F92F801858D8F3F09F4158EF801868D91
:100940008F3F09F4168E0F900FBEBE016C5F7F4F74
:10095000CE0101960E941D0981111BC0C8010E9491
:100960007602882381F06C817D81C80141960E94C6
:10097000B808C8010E94F4020E94A507811193CF14
:100980000E94BE0190CFC8010E94F4020E94A507F8
:100990008ACFC8010E94F4020E94A507C8010E94E4
:1009A0007602882309F47FCF80E00F900F900F909C
:1009B0000F900F90DF91CF911F910F91FF90EF90CB
:1009C000DF90CF90BF909F908F900895E09138076F
:1009D000F09139078081811107C08FEF9FEF9093CD
:1009E000100780930F070895E0913807F0913907B9
:1009F0000580F681E02D0680F781E02D82819381CC
:100A00009093100780930F070895CF93DF93EC0125
:100A10008F89988D0E948800CE010E948800DF9106
:100A2000CF9108956F927F928F929F92AF92BF92D3
:100A3000CF92DF92EF920F931F93CF93DF93CDB7B7
:100A4000DEB74C01F5018789908D215031093C01B9
:100A5000620E731E20E00FC0822F90E0FB01E80FB2
:100A6000F91F3081D501A80FB91F59963C93808199
:100A7000882319F02F5F283078F3F50110A2F3E0F6
:100A8000FE1520F40F2EF3E0EF2EF02DF501E68A8F
:100A9000C50102960E949700C5010C960E9497001E
:100AA000F501B186A08684E090E08E1991099587C2
:100AB0008487B38AA28A11A212A213A214A215A239
:100AC000A801B401C3010E942301F5019183808331
:100AD000C114D10419F0F601B182A082DF91CF9147
:100AE0001F910F91EF90DF90CF90BF90AF909F90AC
:100AF0008F907F906F900895CF93C0E010C08C2F9F
:100B000090E09C01220F331F220F331F220F331F4F
:100B1000820F931F845B984F0E948900CF5FC4307F
:100B200070F383E497E00E9489008AE397E00E94D3
:100B300089008DE297E00E94890084E297E00E949C
:100B400089008AE197E00E94890083E497E090930E
:100B50003907809338078AE397E0909337078093AB
:100B60003607CF910895CF93DF93EC010FB6F89439
:100B70000F92809119078F5F8093190780917007FA
:100B800090917107892B59F4D0937107C093700726
:100B900080911907813099F40E947C0510C08091E2
:100BA000150781110CC0E0917007F09171079689CB
:100BB0008E89891720F0D0937107C09370078091B8
:100BC00011078F5F809311078E89909116079817F0
:100BD00010F48093160790E09C01220F331F220F20
:100BE000331F220F331F820F931FBE016E5F7F4F93
:100BF000845B984F0E949B000F900FBE8091150759
:100C0000882351F0E0917007F091710796898E89E1
:100C1000981710F40E94BE01DF91CF910895FF92C2
:100C20000F931F93CF93DF93EC01F62E00911707DC
:100C300010911807809170079091710702960E9499
:100C4000ED00CF3F8FEFD80769F4FF2059F0609196
:100C50007007709171076E5F7F4F8AE197E00E9485
:100C60009B002FC0C00FD11FE0917007F09171075A
:100C7000D383C283C017D10768F460917007709165
:100C8000710780913607909137076E5F7F4F0E9402
:100C9000BC0017C060917007709171078091380790
:100CA000909139076E5F7F4F0E94BC0080910F07C3
:100CB00090911007C817D90720F4D0931007C0935C
:100CC0000F07DF91CF911F910F91FF9008952F9201
:100CD0003F924F925F926F927F928F929F92AF92CC
:100CE000BF92CF92DF92EF92FF920F931F93CF9319
:100CF000DF933C011B015A012901CA010E945300E4
:100D00006C01892B71F086E290E00E945300EC01A7
:100D1000892B19F0D88ECF8A06C0C6010E948800A0
:100D200002C0C0E0D0E0209791F0950140E050E093
:100D3000812C912C5E016701E02E8201B101C3017B
:100D40000E941205CE010E94B30581E001C08FEF21
:100D5000DF91CF911F910F91FF90EF90DF90CF9097
:100D6000BF90AF909F908F907F906F905F904F90CB
:100D70003F902F900895EF92FF920F930F2EFDE07A
:100D8000EF2EF7E0FF2EF02D00E020E030E044E60B
:100D900050E060E071E08BE598E00E9467068130EA
:100DA00081F4F8948FEF9FEF9093100780930F07D3
:100DB00081E08093150710921807109217070E9480
:100DC0008F010F91FF90EF90089580910C078F5F36
:100DD00080930C070895DF92EF92FF920F931F9379
:100DE000CF93DF9380910C07811197C0E090170794
:100DF000F09018078FEFE81AF80AF0921807E092BF
:100E00001707E114F104B9F480913807909139077C
:100E100020913607309137073093390720933807F0
:100E20009093370780933607809112078F5F8093E6
:100E300012070E94E60480910F0790911007E816B0
:100E4000F90628F4D12C53C0DD24D39401C0D12C51
:100E5000E0913807F09139078081811107C08FEF49
:100E60009FEF9093100780930F0741C0E0913807E0
:100E7000F09139070580F681E02DC681D7818A81FE
:100E80009B81E816F90628F49093100780930F07CA
:100E90002EC08E010E5F1F4FC8010E94ED008C898D
:100EA0009D89892B21F0CE010C960E94ED008E8940
:100EB00090911607981710F48093160790E09C0104
:100EC000220F331F220F331F220F331F820F931F56
:100ED000B801845B984F0E949B009E89E091700747
:100EE000F09171078689981708F0AECFB1CFE091E5
:100EF0007007F0917107868990E0FC01EE0FFF1FEB
:100F0000EE0FFF1FEE0FFF1F8E0F9F1FFC01E45B14
:100F1000F84F8081823040F409C0809114078F5FC0
:100F200080931407D12C02C0DD24D3948091130741
:100F3000882311F0DD24D3948D2DDF91CF911F9163
:100F40000F91FF90EF90DF9008950F931F93CF9331
:100F5000DF930FB6F8940F9280910C078150809325
:100F60000C0780910C07811158C0809119078111DD
:100F700033C056C0E0913207F0913307C681D78164
:100F8000CE010C960E94ED008E010E5F1F4FC8012E
:100F90000E94ED008E8990911607981710F48093A7
:100FA000160790E09C01220F331F220F331F220FE0
:100FB000331F820F931FB801845B984F0E949B00E0
:100FC0009E89E0917007F09171078689981730F03B
:100FD00081E08093130702C0C0E0D0E080912D072C
:100FE0008111C8CFCD2B11F00E94E604C0911407E7
:100FF000CC2359F00E94EB06882319F081E08093FE
:101000001307C150B9F71092140780911307882372
:1010100031F00E94BE0181E003C080E001C080E0A9
:101020000F900FBEDF91CF911F910F910895CF9335
:10103000DF93EC01892B49F00E94E50660E0CE01C8
:101040000E940F060E94A50701C080E0811102C026
:101050000E94BE01DF91CF910895CF93DF9324C00A
:101060000E94E506C09124070E94A507CC23E1F069
:101070000FB6F8940F92E0912907F0912A07C681E4
:10108000D781CE0102960E94ED0080911907815010
:1010900080931907809123078150809323070F9035
:1010A0000FBECE010E940505809123078111D8CF84
:1010B000DF91CF9108950E942D0880914C078230D6
:1010C000D0F30E94BE01F7CF80910C07882321F056
:1010D00081E080931307089510921307209116075B
:1010E00001C02150822F90E0FC01EE0FFF1FEE0F98
:1010F000FF1FEE0FFF1FE80FF91FE45BF84F308171
:10110000332379F3AC01440F551F440F551F440F8F
:10111000551F480F591FDF010180F281E02D028029
:10112000F381E02D1296FC93EE931197415B584F9B
:10113000E417F50729F442815381FD01528341836D
:10114000FC01EE0FFF1FEE0FFF1FEE0FFF1F8E0FB4
:101150009F1FFC01E45BF84F0180F281E02D868146
:1011600097819093710780937007209316070895D5
:10117000CF93DF93EB016091700770917107645F0B
:101180007F4F0E94BC0061E0CE010E940F06DF91FC
:10119000CF9108950F931F93CF93DF93DC011596A2
:1011A000ED91FC911697C681D7818E01045F1F4F88
:1011B000C8010E94ED0080910C0781111CC00A50EB
:1011C0001109C8010E94ED008E89909116079817A9
:1011D00010F48093160790E09C01220F331F220F1A
:1011E000331F220F331F820F931FB801845B984F68
:1011F0000E949B0005C0B8018DE297E00E949B0011
:101200009E89E0917007F09171078689891720F413
:1012100081E08093130701C080E0DF91CF911F919F
:101220000F91089520911207FC0120832091170748
:10123000309118073283218308950FB6F8940F92E6
:101240004091170750911807DB012D913C912F3FDA
:10125000BFEF3B0719F1DC01FC91E0911207FE178B
:1012600039F01196ED91FC9112974E175F07C0F47B
:10127000DC011196ED91FC911297DA01AE1BBF0BC8
:10128000A217B30778F4DB01E41BF50B2E0F3F1F09
:101290002D933C930E94120980E005C080E003C0BA
:1012A00081E001C081E00F900FBE089581E080933E
:1012B00013070895CF93DF931F92CDB7DEB720E0D9
:1012C0004FEF5FEFBE016F5F7F4F8091740790918A
:1012D00075070E943D04813091F789810E94460A7A
:1012E000EECFCF93DF931F92CDB7DEB720E04FEF65
:1012F0005FEFBE016F5F7F4F809172079091730720
:101300000E943D04813091F7898190E00E94610A3A
:10131000EDCFCF93DF931F92CDB7DEB70E949E0C27
:10132000898320E04AE050E0BE016F5F7F4F8091EB
:101330007607909177070E94AB03F0CFCF93DF93AE
:10134000CDB7DEB761970FB6F894DEBF0FBECDBF45
:1013500010E000E003C010E001C00F2D20E04FEFCF
:101360005FEFBE016F5F7F4F8091760790917707A7
:101370000E943D04813091F7111107C089818432A8
:1013800069F78A8311E001E0E9CF113039F70031C4
:1013900010F7FF24F394F00E8981E2E0F0E0EC0F07
:1013A000FD1FE00FF11D80838A30B9F66F2DCE014D
:1013B00002960E94BA0A0F2D10E0D0CF60E875E2C5
:1013C00080E090E00E94600C0E943F0A0E94940B13
:1013D00040E061E080E40E9481039093770780936E
:1013E000760740E061E080E10E94810390937507F9
:1013F0008093740740E061E080E10E948103909354
:101400007307809372078091760790917707892BF5
:10141000A9F18091740790917507892B79F1E12CDE
:10142000F12C02E020E030E044E650E065E071E0BD
:1014300089E899E00E94670601E020E030E048EC8E
:1014400050E06CE071E08EE999E00E94670600E0F0
:1014500020E030E044E650E066E171E08AE599E0A2
:101460000E94670620E030E044E650E061E271E06F
:1014700081E799E00E9467060E94BB06FFCF84B116
:10148000816084B984B1826084B90895682F70E066
:1014900080E090E00E943A0D2BE734E14EE450E406
:1014A0000E94C60C20E030E04AE754E40E94EA0DB6
:1014B00025B1216025B90E94C20B85B18E7F85B907
:1014C0000895682F70E080E090E00E943A0D28E4D3
:1014D00031EE4AE350E40E94C60C20E030E04AE7D7
:1014E00054E40E94EA0D25B1226025B90E94C20B86
:1014F00085B18D7F85B90895AC0190E080E006C08C
:10150000FA01E90FF11D2081820F9F5F9617C0F34A
:1015100008951F93CF93DF93CDB7DEB727970FB60C
:10152000F894DEBF0FBECDBF94E299838A836B83AC
:101530004C832D8364E0CE0102960E947C0A8E8348
:101540008AE08F8310E00AC0E1E0F0E0EC0FFD1FBD
:10155000E10FF11D80810E94770C1F5F1730A0F30F
:1015600027960FB6F894DEBF0FBECDBFDF91CF91A7
:101570001F910895CF92DF92EF92FF920F931F93E6
:10158000CF93DF931F92CDB7DEB7663008F467C004
:10159000FC011181113009F062C00281D38007354E
:1015A00031F4673009F05BC0C58064E00DC00235DE
:1015B00009F055C0663009F052C0E62FF0E03297CE
:1015C000E80FF91FC08063E07C0101960E947C0A4D
:1015D000C81245C0073589F5F70184818983FFE08A
:1015E000FD1528F0ED2DF0E0E858F84F808381E0FC
:1015F000D8120DC020E04FEF5FEFBE016F5F7F4F4D
:1016000080917407909175070E94AB030FC092E020
:10161000D9120CC020E04FEF5FEFBE016F5F7F4F2C
:1016200080917207909173070E94AB0329814D2D21
:10163000602F812F0E94890A12C0023581F419821D
:10164000EFE0ED1530F0ED2DF0E0E858F84F808137
:10165000898329814D2D602F812F0E94890A0F9047
:10166000DF91CF911F910F91FF90EF90DF90CF907E
:1016700008951F920F920FB60F9211240F931F938C
:101680002F933F934F935F936F937F938F939F938A
:10169000AF93BF930091890710918A0720918B0720
:1016A00030918C0790918807B901A8014F5F5F4F77
:1016B0006F4F7F4F83E0890F8D3740F086E8890FA9
:1016C000B901A8014E5F5F4F6F4F7F4F809388072E
:1016D0004093890750938A0760938B0770938C0718
:1016E00080918D0790918E07A0918F07B091900700
:1016F0000196A11DB11D80938D0790938E07A09335
:101700008F07B0939007BF91AF919F918F917F9179
:101710006F915F914F913F912F911F910F910F907A
:101720000FBE0F901F901895F89414BC83E085BDF0
:10173000EEE6F0E080818160808310928D07109248
:101740008E0710928F0710929007109289071092BF
:101750008A0710928B0710928C0710928807789452
:1017600008952FB7F89431E009C06091890770910E
:101770008A0780918B0790918C0730E03111F5CF6B
:101780002FBF08958F929F92AF92BF92CF92DF9218
:10179000EF92FF924B015C010E94B10B6B017C0147
:1017A0000E94B10B6C197D098E099F090E94380DAA
:1017B000A50194010E94C10C882394F3FF90EF903F
:1017C000DF90CF90BF90AF909F908F9008951F9221
:1017D0000F920FB60F9211242F933F938F939F93E5
:1017E000EF93FF933091C6008091920790E00196AD
:1017F0008F739078992324F40197806C9F6F0196E2
:1018000020919107281741F0E0919207F0E0EB5604
:10181000F84F308380939207FF91EF919F918F91C2
:101820003F912F910F900FBE0F901F9018951F9210
:101830000F920FB60F9211248F939F93EF93FF9304
:101840009091940780919307981306C0E1ECF0E023
:1018500080818F7D808314C0E0919307F0E0EB528C
:10186000F84F80818093C6008091930790E00196A5
:10187000907899231CF401979F6F019680939307AA
:10188000FF91EF919F918F910F900FBE0F901F903E
:1018900018951F920F920FB60F9211248F939F935A
:1018A0009091940780919307981303C08BB1837F25
:1018B0008BB99F918F910F900FBE0F901F9018952D
:1018C0001092C50087E68093C40088ED8093C10024
:1018D00086E08093C2008AB18C608AB98BB1837F25
:1018E0008BB9E0ECF0E08081806480830895CF9331
:1018F000C82F8BB18C608BB98091940790E00196D2
:10190000907899231CF401979F6F0196909193070B
:10191000891305C081E090E00E941708EDCFE091A7
:101920009407F0E0EB52F84FC08380939407E1EC0A
:10193000F0E0808180628083CF91089504C081E0CF
:1019400090E00E9417089091920780919107981754
:10195000B1F3E0919107F0E0EB56F84F80812091D0
:10196000910730E02F5F3F4F2F733078332334F4EB
:1019700021503109206C3F6F2F5F3F4F209391071B
:1019800008950E94750D08F481E008950E94DA0C14
:101990000C94B00D0E94A90D58F00E94A20D40F0C9
:1019A00029F45F3F29F00C94990D51110C94E40D2A
:1019B0000C949F0D0E94C10D68F39923B1F3552338
:1019C00091F3951B550BBB27AA2762177307840752
:1019D00038F09F5F5F4F220F331F441FAA1FA9F3E8
:1019E00035D00E2E3AF0E0E832D091505040E695D6
:1019F000001CCAF72BD0FE2F29D0660F771F881F37
:101A0000BB1F261737074807AB07B0E809F0BB0B29
:101A1000802DBF01FF2793585F4F3AF09E3F51053D
:101A200078F00C94990D0C94E40D5F3FE4F3983E2C
:101A3000D4F3869577956795B795F7959F5FC9F726
:101A4000880F911D9695879597F90895E1E0660FA7
:101A5000771F881FBB1F621773078407BA0720F020
:101A6000621B730B840BBA0BEE1F88F7E095089589
:101A7000E89409C097FB3EF4909580957095619528
:101A80007F4F8F4F9F4F9923A9F0F92F96E9BB27DE
:101A90009395F695879577956795B795F111F8CF5A
:101AA000FAF4BB0F11F460FF1BC06F5F7F4F8F4FC5
:101AB0009F4F16C0882311F096E911C0772321F0BB
:101AC0009EE8872F762F05C0662371F096E8862F53
:101AD00070E060E02AF09A95660F771F881FDAF7AA
:101AE000880F9695879597F90895990F0008550FD7
:101AF000AA0BE0E8FEEF16161706E807F907C0F094
:101B000012161306E407F50798F0621B730B840B9B
:101B1000950B39F40A2661F0232B242B252B21F475
:101B200008950A2609F4A140A6958FEF811D811D15
:101B3000089597F99F6780E870E060E008959FEF4F
:101B400080EC089500240A94161617061806090654
:101B5000089500240A941216130614060506089523
:101B6000092E0394000C11F4882352F0BB0F40F4AB
:101B7000BF2B11F460FF04C06F5F7F4F8F4F9F4FEB
:101B8000089557FD9058440F551F59F05F3F71F06D
:101B90004795880F97FB991F61F09F3F79F08795D4
:101BA0000895121613061406551FF2CF4695F1DF5D
:101BB00008C0161617061806991FF1CF86957105ED
:101BC000610508940895E894BB2766277727CB0121
:101BD00097F908950E94FD0D0C94B00D0E94A20D7E
:101BE00038F00E94A90D20F0952311F00C94990D66
:101BF0000C949F0D11240C94E40D0E94C10D70F300
:101C0000959FC1F3950F50E0551F629FF001729FA1
:101C1000BB27F00DB11D639FAA27F00DB11DAA1FB0
:101C2000649F6627B00DA11D661F829F2227B00DFD
:101C3000A11D621F739FB00DA11D621F839FA00D88
:101C4000611D221F749F3327A00D611D231F849FD8
:101C5000600D211D822F762F6A2F11249F5750402F
:101C60009AF0F1F088234AF0EE0FFF1FBB1F661FAA
:101C7000771F881F91505040A9F79E3F510580F073
:101C80000C94990D0C94E40D5F3FE4F3983ED4F36B
:101C9000869577956795B795F795E7959F5FC1F717
:101CA000FE2B880F911D9695879597F90895FB0156
:101CB000DC0102C001900D9241505040D8F70895C8
:041CC000F894FFCFC6
:101CC40049444C450052785461736B0050726F74F0
:101CD4006F5461736B004D6F746572315461736B33
:0C1CE400004D6F746572325461736B0028
:00000001FF
