:100000000C9434000C9451000C9451000C94510049
:100010000C9451000C9451000C9451000C9451001C
:100020000C9451000C9451000C9451000C947302E8
:100030000C9451000C9451000C9451000C945100FC
:100040000C94950A0C9451000C94430B0C94730B74
:100050000C94A50B0C9451000C9451000C9451007D
:100060000C9451000C94510011241FBECFEFD8E026
:10007000DEBFCDBF11E0A0E0B1E0ECE7FBE102C0E4
:1000800005900D92A631B107D9F725E0A6E1B1E0C0
:1000900001C01D92AF3FB207E1F70E94AF090C9477
:1000A000BC0D0C940000CF93DF93EC010E94E50699
:1000B0008091160190911701892B31F48BE191E029
:1000C0009093170180931601209118013091190126
:1000D000C9018C0F9D1F8F3143E0940770F42817DE
:1000E000390770F4C0911601D0911701C20FD31FC8
:1000F000909319018093180105C0C0E0D0E002C0C0
:10010000C0E0D0E00E94A507CE01DF91CF91089515
:100110000895FC010396928381832FEF3FEF348390
:100120002383968385839087878310820895FC01BB
:10013000118610860895CF93DF939C01FB01DC01AB
:100140001196CD91DC911297D383C2838C819D81CE
:10015000958384838C819D81DC0113967C936E93BF
:1001600012977D836C8331872087F90180818F5FAF
:100170008083DF91CF910895CF93DF93EB01488186
:1001800059814F3F2FEF520721F4FC01A781B08521
:100190000DC0DC01139601C0DF011296ED91FC91B8
:1001A00013972081318142175307B0F71296ED91D2
:1001B000FC911397FB83EA83D583C483BD83AC830F
:1001C0001396DC93CE93129799878887FC01208140
:1001D0002F5F2083DF91CF910895CF93DF93FC01B0
:1001E000A085B185C281D381848195819D838C83D3
:1001F000C481D581828193819B838A8311968D915D
:100200009C911297E817F90731F484819581129631
:100210009C938E931197118610868C9181508C93AC
:10022000DF91CF9108951092890089EF8093880023
:10023000E1E8F0E080818B608083EFE6F0E0808190
:1002400082608083089531E1FC013083319722E29E
:1002500020833197A3E3A083319760833197708324
:1002600031971082319760E860833197108231971F
:1002700062E06083319763E06083319764E060837C
:10028000319765E06083319766E06083319767E07E
:100290006083319768E06083319769E060833197CC
:1002A00060E1608331973083319732E13083319759
:1002B00033E13083319734E13083319735E1308356
:1002C000319736E13083319737E13083319738E128
:1002D0003083319739E13083319730E23083319781
:1002E00031E2308331972083319723E220833197A5
:1002F000408331975083319726E22083319727E25C
:100300002083319728E22083319729E22083319797
:1003100020E32083319721E32083869708950E946C
:100320001301A0919E04B0919F04CD91CDBFDD91AA
:10033000DEBFFF91EF91DF91CF91BF91AF919F9180
:100340008F917F916F915F914F913F912F911F916D
:100350000F91FF90EF90DF90CF90BF90AF909F9064
:100360008F907F906F905F904F903F902F901F9055
:100370000F900FBE0F90089581E008950F920FB671
:10038000F8940F921F9211242F923F924F925F92F6
:100390006F927F928F929F92AF92BF92CF92DF9295
:1003A000EF92FF920F931F932F933F934F935F937F
:1003B0006F937F938F939F93AF93BF93CF93DF936D
:1003C000EF93FF93A0919E04B0919F040DB60D9200
:1003D0000EB60D920E946408A0919E04B0919F04F5
:1003E000CD91CDBFDD91DEBFFF91EF91DF91CF9138
:1003F000BF91AF919F918F917F916F915F914F913D
:100400003F912F911F910F91FF90EF90DF90CF9030
:10041000BF90AF909F908F907F906F905F904F9024
:100420003F902F901F900F900FBE0F9008950F9246
:100430000FB6F8940F921F9211242F923F924F9271
:100440005F926F927F928F929F92AF92BF92CF9264
:10045000DF92EF92FF920F931F932F933F934F934F
:100460005F936F937F938F939F93AF93BF93CF933C
:10047000DF93EF93FF93A0919E04B0919F040DB67C
:100480000D920EB60D920E94EB0681110E94640837
:10049000A0919E04B0919F04CD91CDBFDD91DEBFB0
:1004A000FF91EF91DF91CF91BF91AF919F918F918C
:1004B0007F916F915F914F913F912F911F910F917C
:1004C000FF90EF90DF90CF90BF90AF909F908F9074
:1004D0007F906F905F904F903F902F901F900F9064
:1004E0000FBE0F9008950E94170218950FB6F8944A
:1004F0000F92FC01828D811102C081E001C080E079
:100500000F900FBE08950FB6F8940F92FC01228D44
:10051000838D281302C081E001C080E00F900FBEE0
:1005200008950F931F93CF93DF93EC01042F1A8D3F
:100530004C8D4423B9F1011116C050E08C819D818E
:100540000E94B30D2C8D8C819D81820F911D9D8306
:100550008C832A813B818217930720F188819981BE
:100560009D838C831FC050E08E819F810E94B30DBC
:100570008C8D90E09195819591092E813F81280F76
:10058000391F3F832E83488159812417350730F462
:100590002A813B81820F931F9F838E83023011F447
:1005A000111111501F5F1A8F80E0DF91CF911F91C1
:1005B0000F910895FC01448D4423A9F050E0268159
:1005C0003781240F351F3783268382819381281733
:1005D000390720F08081918197838683CB016681E2
:1005E00077810E94B30D08951F93CF93DF93EC01A1
:1005F0000FB6F8940F921E8D0BC08989882351F095
:10060000CE0141960E94CA0881110E9456091150DC
:1006100011169CF38FEF8E8F0F900FBE0FB6F894CC
:100620000F921D8D0BC08885882351F0CE0108964E
:100630000E94CA0881110E945609115011169CF39C
:100640008FEF8D8F0F900FBEDF91CF911F91089587
:10065000CF93DF93EC010FB6F8940F92E881F98104
:100660008B8D90E02C8D30E0829FA001839F500DF8
:10067000929F500D11244E0F5F1F5B834A831A8E89
:10068000FD83EC830197289FA001299F500D389F7F
:10069000500D1124CF01840F951F9F838E838FEF00
:1006A0008D8F8E8F61110CC08885882389F0CE01D3
:1006B00008960E94CA08882359F00E94BE0108C00B
:1006C000CE0108960E948900CE0141960E948900C1
:1006D0000F900FBE81E0DF91CF9108950F931F938C
:1006E000F801611103C01183008302C0518340836C
:1006F000838F648F61E0CF010E9428031F910F91C7
:100700000895DF92EF92FF920F931F93CF93DF93A1
:10071000E82EF62ED42E662321F0869FC0011124E8
:1007200002C080E090E04F960E945300EC010097D9
:1007300049F08C012D2DAC01415E5F4F6F2D8E2D48
:100740000E946E03CE01DF91CF911F910F91FF9018
:10075000EF90DF900895CF92DF92EF92FF920F9388
:100760001F93CF93DF9300D000D01F92CDB7DEB799
:100770008C017B015D834C83C22ED12C0FB6F89483
:100780000F92F801928D838D981718F0F2E0CF1236
:1007900019C04C2DB701C8010E949102F80191893E
:1007A000992349F0C80141960E94CA08882331F074
:1007B0000E94BE0103C081110E94BE010F900FBEB6
:1007C00081E04DC08C819D81892B21F40F900FBE5B
:1007D00080E045C0D11006C0CE0101960E941209EA
:1007E000DD24D3940F900FBE0E94E5060FB6F89457
:1007F0000F92F801858D8F3F09F4158EF801868DD3
:100800008F3F09F4168E0F900FBEBE016C5F7F4FB5
:10081000CE0101960E941D0981111BC0C8010E94D2
:100820008302882381F06C817D81C80108960E9433
:10083000B808C8010E94F4020E94A50781119ECF4A
:100840000E94BE019BCFC8010E94F4020E94A5072E
:1008500095CFC8010E94F4020E94A50780E00F9086
:100860000F900F900F900F90DF91CF911F910F91EC
:10087000FF90EF90DF90CF9008958F929F92BF925C
:10088000CF92DF92EF92FF920F931F93CF93DF935C
:1008900000D000D01F92CDB7DEB78C016B015D8315
:1008A0004C83B22EE12C0FB6F8940F92F801F28C23
:1008B000FF2041F186809780B601C8010E94DA02CC
:1008C000B1100FC0FA94F801F28E80858823B1F040
:1008D000C80108960E94CA08882381F00E94BE01C0
:1008E0000DC0F801978286828189882339F0C8017A
:1008F00041960E94CA0881110E94BE010F900FBE4E
:1009000081E053C08C819D81892B21F40F900FBE13
:1009100080E04BC0E11006C0CE0101960E94120992
:10092000EE24E3940F900FBE0E94E5060FB6F894F4
:100930000F92F801858D8F3F09F4158EF801868D91
:100940008F3F09F4168E0F900FBEBE016C5F7F4F74
:10095000CE0101960E941D0981111BC0C8010E9491
:100960007602882381F06C817D81C80141960E94C6
:10097000B808C8010E94F4020E94A507811193CF14
:100980000E94BE0190CFC8010E94F4020E94A507F8
:100990008ACFC8010E94F4020E94A507C8010E94E4
:1009A0007602882309F47FCF80E00F900F900F909C
:1009B0000F900F90DF91CF911F910F91FF90EF90CB
:1009C000DF90CF90BF909F908F900895E091660444
:1009D000F09167048081811107C08FEF9FEF9093A2
:1009E0003E0480933D040895E0916604F09167040D
:1009F0000580F681E02D0680F781E02D82819381CC
:100A000090933E0480933D040895CF93DF93EC01CF
:100A10008F89988D0E948800CE010E948800DF9106
:100A2000CF9108956F927F928F929F92AF92BF92D3
:100A3000CF92DF92EF920F931F93CF93DF93CDB7B7
:100A4000DEB74C01F5018789908D215031093C01B9
:100A5000620E731E20E00FC0822F90E0FB01E80FB2
:100A6000F91F3081D501A80FB91F59963C93808199
:100A7000882319F02F5F283078F3F50110A2F3E0F6
:100A8000FE1520F40F2EF3E0EF2EF02DF501E68A8F
:100A9000C50102960E949700C5010C960E9497001E
:100AA000F501B186A08684E090E08E1991099587C2
:100AB0008487B38AA28A11A212A213A214A215A239
:100AC000A801B401C3010E942301F5019183808331
:100AD000C114D10419F0F601B182A082DF91CF9147
:100AE0001F910F91EF90DF90CF90BF90AF909F90AC
:100AF0008F907F906F900895CF93C0E010C08C2F9F
:100B000090E09C01220F331F220F331F220F331F4F
:100B1000820F931F86589B4F0E948900CF5FC4307D
:100B200070F381E794E00E94890088E694E00E94D7
:100B300089008BE594E00E94890082E594E00E94A0
:100B4000890088E494E00E94890081E794E0909312
:100B500067048093660488E694E09093650480932C
:100B60006404CF910895CF93DF93EC010FB6F8940E
:100B70000F92809147048F5F8093470480919E0479
:100B800090919F04892B59F4D0939F04C0939E04A5
:100B900080914704813099F40E947C0510C08091B7
:100BA000430481110CC0E0919E04F0919F0496894A
:100BB0008E89891720F0D0939F04C0939E04809162
:100BC0003F048F5F80933F048E899091440498176F
:100BD00010F48093440490E09C01220F331F220FF5
:100BE000331F220F331F820F931FBE016E5F7F4F93
:100BF00086589B4F0E949B000F900FBE809143042C
:100C0000882351F0E0919E04F0919F0496898E898B
:100C1000981710F40E94BE01DF91CF910895FF92C2
:100C20000F931F93CF93DF93EC01F62E00914504B1
:100C30001091460480919E0490919F0402960E9418
:100C4000ED00CF3F8FEFD80769F4FF2059F0609196
:100C50009E0470919F046E5F7F4F88E494E00E9431
:100C60009B002FC0C00FD11FE0919E04F0919F0404
:100C7000D383C283C017D10768F460919E0470913A
:100C80009F0480916404909165046E5F7F4F0E9481
:100C9000BC0017C060919E0470919F04809166040F
:100CA000909167046E5F7F4F0E94BC0080913D046D
:100CB00090913E04C817D90720F4D0933E04C09306
:100CC0003D04DF91CF911F910F91FF9008952F92D6
:100CD0003F924F925F926F927F928F929F92AF92CC
:100CE000BF92CF92DF92EF92FF920F931F93CF9319
:100CF000DF933C011B015A012901CA010E945300E4
:100D00006C01892B71F086E290E00E945300EC01A7
:100D1000892B19F0D88ECF8A06C0C6010E948800A0
:100D200002C0C0E0D0E0209791F0950140E050E093
:100D3000812C912C5E016701E02E8201B101C3017B
:100D40000E941205CE010E94B30581E001C08FEF21
:100D5000DF91CF911F910F91FF90EF90DF90CF9097
:100D6000BF90AF909F908F907F906F905F904F90CB
:100D70003F902F900895EF92FF920F930F2EFBE379
:100D8000EF2EF4E0FF2EF02D00E020E030E045E50E
:100D900050E060E071E08BE598E00E9467068130EA
:100DA00081F4F8948FEF9FEF90933E0480933D047D
:100DB00081E08093430410924604109245040E94FF
:100DC0008F010F91FF90EF90089580913A048F5F0B
:100DD00080933A040895DF92EF92FF920F931F934E
:100DE000CF93DF9380913A04811197C0E09045043E
:100DF000F09046048FEFE81AF80AF0924604E09269
:100E00004504E114F104B9F48091660490916704FB
:100E10002091640430916504309367042093660444
:100E20009093650480936404809140048F5F809365
:100E300040040E94E60480913D0490913E04E8162F
:100E4000F90628F4D12C53C0DD24D39401C0D12C51
:100E5000E0916604F09167048081811107C08FEFF3
:100E60009FEF90933E0480933D0441C0E09166045F
:100E7000F09167040580F681E02DC681D7818A81D3
:100E80009B81E816F90628F490933E0480933D0474
:100E90002EC08E010E5F1F4FC8010E94ED008C898D
:100EA0009D89892B21F0CE010C960E94ED008E8940
:100EB00090914404981710F48093440490E09C01AE
:100EC000220F331F220F331F220F331F820F931F56
:100ED000B80186589B4F0E949B009E89E0919E041A
:100EE000F0919F048689981708F0AECFB1CFE091BA
:100EF0009E04F0919F04868990E0FC01EE0FFF1F95
:100F0000EE0FFF1FEE0FFF1F8E0F9F1FFC01E65815
:100F1000FB4F8081823040F409C0809142048F5F92
:100F200080934204D12C02C0DD24D39480914104EB
:100F3000882311F0DD24D3948D2DDF91CF911F9163
:100F40000F91FF90EF90DF9008950F931F93CF9331
:100F5000DF930FB6F8940F9280913A0481508093FA
:100F60003A0480913A04811158C08091470481115C
:100F700033C056C0E0916004F0916104C681D7810E
:100F8000CE010C960E94ED008E010E5F1F4FC8012E
:100F90000E94ED008E8990914404981710F480937C
:100FA000440490E09C01220F331F220F331F220FB5
:100FB000331F820F931FB80186589B4F0E949B00DE
:100FC0009E89E0919E04F0919F048689981730F0E5
:100FD00081E08093410402C0C0E0D0E080915B04D6
:100FE0008111C8CFCD2B11F00E94E604C0914204BC
:100FF000CC2359F00E94EB06882319F081E08093FE
:101000004104C150B9F710924204809141048823F1
:1010100031F00E94BE0181E003C080E001C080E0A9
:101020000F900FBEDF91CF911F910F910895CF9335
:10103000DF93EC01892B49F00E94E50660E0CE01C8
:101040000E940F060E94A50701C080E0811102C026
:101050000E94BE01DF91CF910895CF93DF9324C00A
:101060000E94E506C09152040E94A507CC23E1F03E
:101070000FB6F8940F92E0915704F0915804C6818E
:10108000D781CE0102960E94ED00809147048150E5
:1010900080934704809151048150809351040F90B4
:1010A0000FBECE010E940505809151048111D8CF59
:1010B000DF91CF9108950E942D0880917A048230AB
:1010C000D0F30E94BE01F7CF80913A04882321F02B
:1010D00081E08093410408951092410420914404DA
:1010E00001C02150822F90E0FC01EE0FFF1FEE0F98
:1010F000FF1FEE0FFF1FE80FF91FE658FB4F30816F
:10110000332379F3AC01440F551F440F551F440F8F
:10111000551F480F591FDF010180F281E02D028029
:10112000F381E02D1296FC93EE93119743585B4F99
:10113000E417F50729F442815381FD01528341836D
:10114000FC01EE0FFF1FEE0FFF1FEE0FFF1F8E0FB4
:101150009F1FFC01E658FB4F0180F281E02D868144
:10116000978190939F0480939E0420934404089554
:10117000CF93DF93EB0160919E0470919F04645FB5
:101180007F4F0E94BC0061E0CE010E940F06DF91FC
:10119000CF9108950F931F93CF93DF93DC011596A2
:1011A000ED91FC911697C681D7818E01045F1F4F88
:1011B000C8010E94ED0080913A0481111CC00A50C0
:1011C0001109C8010E94ED008E899091440498177E
:1011D00010F48093440490E09C01220F331F220FEF
:1011E000331F220F331F820F931FB80186589B4F66
:1011F0000E949B0005C0B8018BE594E00E949B0013
:101200009E89E0919E04F0919F048689891720F4BD
:1012100081E08093410401C080E0DF91CF911F9174
:101220000F91089520914004FC01208320914504F2
:10123000309146043283218308950FB6F8940F92BB
:101240004091450450914604DB012D913C912F3F84
:10125000BFEF3B0719F1DC01FC91E0914004FE1760
:1012600039F01196ED91FC9112974E175F07C0F47B
:10127000DC011196ED91FC911297DA01AE1BBF0BC8
:10128000A217B30778F4DB01E41BF50B2E0F3F1F09
:101290002D933C930E94120980E005C080E003C0BA
:1012A00081E001C081E00F900FBE089581E080933E
:1012B00041040895CF93DF931F92CDB7DEB70E940C
:1012C000FA0B898320E04AE050E0BE016F5F7F4F58
:1012D0008091A0049091A1040E94AB03F0CFCF9322
:1012E000DF93CDB7DEB761970FB6F894DEBF0FBEC0
:1012F000CDBF10E000E003C010E001C00F2D20E0E2
:101300004FEF5FEFBE016F5F7F4F8091A004909120
:10131000A1040E943D04813091F7111107C0898119
:10132000843269F78A8311E001E0E9CF113039F79F
:10133000003110F7FF24F394F00E8981E2E0F0E031
:10134000EC0FFD1FE00FF11D80838A30B9F66F2D81
:10135000CE0102960E943F0A0F2D10E0D0CF60E828
:1013600075E280E090E00E94BC0B0E94DF090E94C1
:10137000F00A40E061E080E40E9481039093A104C0
:101380008093A004892BD1F0E12CF12C02E020E025
:1013900030E049EB50E065E071E08AE599E00E94B9
:1013A000670601E020E030E049EB50E06CE071E0DE
:1013B0008FE699E00E9467060E94BB06FFCF84B1CA
:1013C000816084B984B1826084B90895682F70E027
:1013D00080E090E00E94960C21EE3AE744E650E46B
:1013E0000E94220C20E030E04AE754E40E94460DBF
:1013F00025B1216025B90E941E0B85B18E7F85B96C
:101400000895AC0190E080E006C0FA01E90FF11DFB
:101410002081820F9F5F9617C0F308951F93CF938B
:10142000DF93CDB7DEB727970FB6F894DEBF0FBEB8
:10143000CDBF94E299838A836B834C832D8364E0D0
:10144000CE0102960E94010A8E838AE08F8310E00B
:101450000AC0E1E0F0E0EC0FFD1FE10FF11D80811B
:101460000E94D30B1F5F1730A0F327960FB6F89496
:10147000DEBF0FBECDBFDF91CF911F910895EF92D8
:10148000FF920F931F93CF93DF93663008F446C00B
:10149000FC011181113009F041C00281F380073550
:1014A00029F46730D9F5E58064E00BC00235B1F569
:1014B0006630A1F5E62FF0E03297E80FF91FE080E3
:1014C00063E0EC0101960E94010AE81227C007358B
:1014D000A1F4CC81FFE0FF1528F0EF2DF0E0EE55F0
:1014E000FB4FC0838C2F90E00E94E6092C2F4F2DDC
:1014F000602F812F0E940E0A11C0023579F48FE00F
:101500008F1530F0EF2DF0E0EE55FB4F208101C03C
:1015100020E04F2D602F812F0E940E0ADF91CF9186
:101520001F910F91FF90EF9008951F920F920FB6A9
:101530000F9211240F931F932F933F934F935F9319
:101540006F937F938F939F93AF93BF930091B30457
:101550001091B4042091B5043091B6049091B20476
:10156000B901A8014F5F5F4F6F4F7F4F83E0890F35
:101570008D3740F086E8890FB901A8014E5F5F4FB3
:101580006F4F7F4F8093B2044093B3045093B404E1
:101590006093B5047093B6048091B7049091B80439
:1015A000A091B904B091BA040196A11DB11D809318
:1015B000B7049093B804A093B904B093BA04BF9150
:1015C000AF919F918F917F916F915F914F913F91DB
:1015D0002F911F910F910F900FBE0F901F90189594
:1015E000F89414BC83E085BDEEE6F0E08081816074
:1015F00080831092B7041092B8041092B90410922C
:10160000BA041092B3041092B4041092B50410926C
:10161000B6041092B204789408952FB7F89431E08C
:1016200009C06091B3047091B4048091B5049091A5
:10163000B60430E03111F5CF2FBF08958F929F92FD
:10164000AF92BF92CF92DF92EF92FF924B015C017B
:101650000E940D0B6B017C010E940D0B6C197D0922
:101660008E099F090E94940CA50194010E941D0CF3
:10167000882394F3FF90EF90DF90CF90BF90AF90CE
:101680009F908F9008951F920F920FB60F92112482
:101690002F933F938F939F93EF93FF933091C600C7
:1016A0008091BC0490E001968F739078992324F484
:1016B0000197806C9F6F01962091BB04281741F021
:1016C000E091BC04F0E0E154FB4F30838093BC0414
:1016D000FF91EF919F918F913F912F910F900FBEAE
:1016E0000F901F9018951F920F920FB60F92112412
:1016F0008F939F93EF93FF939091BE048091BD04CD
:10170000981306C0E1ECF0E080818F7D808314C0E7
:10171000E091BD04F0E0E150FB4F80818093C60072
:101720008091BD0490E00196907899231CF4019774
:101730009F6F01968093BD04FF91EF919F918F91D0
:101740000F900FBE0F901F9018951F920F920FB61B
:101750000F9211248F939F939091BE048091BD04AA
:10176000981303C08BB1837F8BB99F918F910F909A
:101770000FBE0F901F9018951092C50087E68093BA
:10178000C40088ED8093C10086E08093C2008AB1D6
:101790008C608AB98BB1837F8BB9E0ECF0E08081FB
:1017A000806480830895CF93C82F8BB18C608BB9F0
:1017B0008091BE0490E00196907899231CF40197E3
:1017C0009F6F01969091BD04891305C081E090E060
:1017D0000E941708EDCFE091BE04F0E0E150FB4F0E
:1017E000C0838093BE04E1ECF0E08081806280835E
:1017F000CF91089504C081E090E00E941708909175
:10180000BC048091BB049817B1F3E091BB04F0E0F5
:10181000E154FB4F80812091BB0430E02F5F3F4FAC
:101820002F733078332334F421503109206C3F6F0B
:101830002F5F3F4F2093BB0408950E94D10C08F402
:1018400081E008950E94360C0C940C0D0E94050D49
:1018500058F00E94FE0C40F029F45F3F29F00C94F0
:10186000F50C51110C94400D0C94FB0C0E941D0DB5
:1018700068F39923B1F3552391F3951B550BBB27BF
:10188000AA2762177307840738F09F5F5F4F220F04
:10189000331F441FAA1FA9F335D00E2E3AF0E0E8FB
:1018A00032D091505040E695001CCAF72BD0FE2F45
:1018B00029D0660F771F881FBB1F261737074807D9
:1018C000AB07B0E809F0BB0B802DBF01FF27935891
:1018D0005F4F3AF09E3F510578F00C94F50C0C9454
:1018E000400D5F3FE4F3983ED4F386957795679576
:1018F000B795F7959F5FC9F7880F911D96958795C6
:1019000097F90895E1E0660F771F881FBB1F6217E4
:1019100073078407BA0720F0621B730B840BBA0BA2
:10192000EE1F88F7E0950895E89409C097FB3EF410
:1019300090958095709561957F4F8F4F9F4F99231C
:10194000A9F0F92F96E9BB279395F695879577959A
:101950006795B795F111F8CFFAF4BB0F11F460FF5A
:101960001BC06F5F7F4F8F4F9F4F16C0882311F0B2
:1019700096E911C0772321F09EE8872F762F05C0C6
:10198000662371F096E8862F70E060E02AF09A9561
:10199000660F771F881FDAF7880F9695879597F956
:1019A0000895990F0008550FAA0BE0E8FEEF1616F0
:1019B0001706E807F907C0F012161306E407F50743
:1019C00098F0621B730B840B950B39F40A2661F0B7
:1019D000232B242B252B21F408950A2609F4A1405A
:1019E000A6958FEF811D811D089597F99F6780E867
:1019F00070E060E008959FEF80EC089500240A9461
:101A00001616170618060906089500240A941216D9
:101A10001306140605060895092E0394000C11F40C
:101A2000882352F0BB0F40F4BF2B11F460FF04C0B9
:101A30006F5F7F4F8F4F9F4F089557FD9058440F12
:101A4000551F59F05F3F71F04795880F97FB991F1D
:101A500061F09F3F79F087950895121613061406DA
:101A6000551FF2CF4695F1DF08C016161706180667
:101A7000991FF1CF86957105610508940895E89442
:101A8000BB2766277727CB0197F908950E94590D48
:101A90000C940C0D0E94FE0C38F00E94050D20F0F5
:101AA000952311F00C94F50C0C94FB0C11240C9460
:101AB000400D0E941D0D70F3959FC1F3950F50E0EE
:101AC000551F629FF001729FBB27F00DB11D639FF0
:101AD000AA27F00DB11DAA1F649F6627B00DA11D96
:101AE000661F829F2227B00DA11D621F739FB00D3C
:101AF000A11D621F839FA00D611D221F749F3327AC
:101B0000A00D611D231F849F600D211D822F762F44
:101B10006A2F11249F5750409AF0F1F088234AF021
:101B2000EE0FFF1FBB1F661F771F881F915050408D
:101B3000A9F79E3F510580F00C94F50C0C94400DD4
:101B40005F3FE4F3983ED4F3869577956795B79514
:101B5000F795E7959F5FC1F7FE2B880F911D96952E
:101B6000879597F90895FB01DC0102C001900D9261
:0C1B700041505040D8F70895F894FFCF82
:101B7C0049444C450052785461736B0050726F7439
:061B8C006F5461736B0051
:00000001FF
