:100000000C9434000C9446000C9446000C9446006A
:100010000C9446000C9446000C9446000C94460048
:100020000C9446000C9446000C9446000C94460038
:100030000C9446000C9446000C9446000C94460028
:100040000C945A000C9446000C94D2000C940201BB
:100050000C9446000C9446000C9446000C94460008
:100060000C9446000C94460011241FBECFEFD8E03C
:10007000DEBFCDBF21E0A0E0B1E001C01D92AD38F0
:10008000B207E1F70E9448000C94CE010C940000E6
:1000900060E875E280E090E00E9442010E94B500B5
:1000A00078940E94A3018823E1F30E9485010E94B5
:1000B0006101F7CF1F920F920FB60F9211240F9389
:1000C0001F932F933F934F935F936F937F938F93E0
:1000D0009F93AF93BF930091010110910201209172
:1000E00003013091040190910001B901A8014F5F13
:1000F0005F4F6F4F7F4F83E0890F8D3740F086E869
:10010000890FB901A8014E5F5F4F6F4F7F4F8093FA
:100110000001409301015093020160930301709329
:1001200004018091050190910601A0910701B09111
:1001300008010196A11DB11D809305019093060150
:10014000A0930701B0930801BF91AF919F918F9148
:100150007F916F915F914F913F912F911F910F91DF
:100160000F900FBE0F901F901895F89414BC83E069
:1001700085BDEEE6F0E0808181608083109205010C
:1001800010920601109207011092080110920101CD
:1001900010920201109203011092040110920001CA
:1001A000789408951F920F920FB60F9211242F93F7
:1001B0003F938F939F93EF93FF933091C60080916D
:1001C0000A0190E001968F739078992324F40197A7
:1001D000806C9F6F019620910901281741F0E091F2
:1001E0000A01F0E0E35FFE4F308380930A01FF9144
:1001F000EF919F918F913F912F910F900FBE0F9094
:100200001F9018951F920F920FB60F9211248F9383
:100210009F93EF93FF9390910C0180910B019813A2
:1002200012C0E1ECF0E080818F7D80838091C0007E
:1002300086FFFCCF8BB1837F8BB9E0ECF0E080814F
:100240008064808316C0E0910B01F0E0E35BFE4F19
:1002500080818093C60080910B0190E001968F739E
:100260009078992324F40197806C9F6F0196809376
:100270000B01FF91EF919F918F910F900FBE0F9007
:100280001F9018959B01AC0160E472E48FE090E050
:100290000E94AC01215031093093C5002093C40065
:1002A00086E08093C200E1ECF0E088E18083808109
:1002B000806880838AB18C608AB98BB1837F8BB967
:1002C00008959BB19C609BB920910C0130E02F5F99
:1002D0003F4F2F733078332334F421503109206C91
:1002E0003F6F2F5F3F4F90910B012917E1F3E09192
:1002F0000C01F0E0E35BFE4F808320930C01E1EC06
:10030000F0E0808180628083089590910A0180915D
:1003100009019817D1F3E0910901F0E0E35FFE4F86
:1003200080812091090130E02F5F3F4F2F7330789B
:10033000332334F421503109206C3F6F2F5F3F4F3E
:1003400020930901089520910A019091090181E00B
:10035000291301C080E00895A1E21A2EAA1BBB1B3D
:10036000FD010DC0AA1FBB1FEE1FFF1FA217B30781
:10037000E407F50720F0A21BB30BE40BF50B661F97
:10038000771F881F991F1A9469F76095709580955B
:1003900090959B01AC01BD01CF010895F894FFCF6A
:00000001FF
